:020000040000fa
:080000002002040000000000d2
:020000040000fa
:10040000787d0400000000007a280400000000004d
:10041000a20a040000000000167d04000000000095
:10042000527d040000000000ce7d040000000000aa
:10043000fe7c040000000000f47d040000000000c9
:100440002fca2100807f22000001880000000000e8
:10045000050007000c0007003090020000000000bb
:100460000040da000000fe004440a90040382000af
:100470000000e0000300320010002000a00188000e
:100480004440a80000000600a03b29000100200015
:100490001600370062004000e080480091018800ab
:1004a0009001ba0062004000e0804800910188009d
:1004b0009002ba0062004000e08048000002eb00b9
:1004c0006028e10005003a008301e90007003300dd
:1004d000038009000059eb00040037006128e100a7
:1004e000010032000082eb00050007009101880046
:1004f0001001ba000200e000e6ff3a00000005002b
:10050000910188008002780062004000e08048008d
:100510003559ba008301e900080032002559ba00b4
:100520008301e900050032000400e000f4ff32001e
:1005300015d9ba008301e900f1ff3a000000060076
:1005400000037800800178000900370093427800aa
:100550001142780084cf5200030032000080eb008b
:1005600007003900100005008301e8008100e80061
:1005700002004300808f5100f4ff3a000000eb00be
:1005800000000600000278008001780001003700ba
:10059000b159780002004200808f5100fcff3a0000
:1005a00004007800000006001004b10007003500c8
:1005b0009001b100040034007000b1000300350068
:1005c0009001b10001003c00100005000000050092
:1005d000800078001106b100030035009101b100e0
:1005e00001003c000050a1000000060080007800df
:1005f000010037000000e8001004e000fdff3a00b1
:100600000100500000000600000278008001780020
:10061000010037008159780002004200808f5100ac
:10062000fcff3a000400780000000600889fbe002e
:1006300001047800914478001104e0000b003a00b6
:100640000e00370000017800880078008100e80083
:10065000914178001104e000080032000201e80036
:1006600092cf1100f9ff32000000e8008900fb0082
:10067000040007000000e000f2ff3a004f04be0053
:1006800000000600040037001004e00001003a00fa
:10069000000005000000e80090cf1000faff3a00cb
:1006a00000000600ec874700889fbe008a9fbe00be
:1006b0008c9fbe008e1f7800f0b79f0081bf9f0007
:1006c0008204780000047800010037000804e80084
:1006d000184778000e00fb009d0007000000e000b6
:1006e000faff3a00d0c2b300804f57000500320035
:1006f00000c0e900804f5700020032000047780038
:10070000010037000804e8000900e000450035005a
:10071000e18f54004300320040022000808f5400db
:1007200040003c000900e0000e003400f08f54004f
:100730001a003a0000c3b300984f100016003a00a8
:100740009840900080c7b30080cf50000300320073
:1007500080c5b30080cf50000f003a000884e80045
:100760000e003700a900200000c3b300984f10000e
:100770000a003a009840900080c7b30080cf500034
:10078000040032008900200080c5b30080cf5000f3
:1007900002003a000884e8000901200008057800fa
:1007a000010037000a05e80000c3b3009a4f1000ab
:1007b000fcff32008a0578006066b8000e00370042
:1007c00050b8210000425200c4ef9f006149b900b7
:1007d0000c00be008d0007004fea97000401fb00eb
:1007e000cf91de008b05e800ccb79f00ddb79f00fe
:1007f00000064100818649001b00fb005c000700e9
:10080000800078000901780050b821005f000700df
:10081000000278000000e000e9ff3a008b0f54006e
:1008200006003a000fb897000000e00029003200ef
:10083000ffb0970001087800260037008a80550035
:1008400000b62100694078000000fb0000805000e5
:10085000160033004240a9000f003c004fe997000a
:100860000200fb00cf80de000000560081805e00a9
:10087000800f5600818f5e00070039006149b90082
:10088000520007004fb19700dfb19700820f500070
:10089000838f5800050032002002200000e5880008
:1008a0000086eb008086eb0005003700d0c2b30065
:1008b000804f570002003a0060061600e0861e00d6
:1008c0008fb997000300e000030032008b09780025
:1008d000010037006066b8000c00be004f077800ca
:1008e0004f06be004f05be004f04be00cf00b10052
:1008f00000000600800178000001780011407800b7
:10090000315978000004e000fcff3a000300780051
:1009100000000600040037001004e0000900320067
:100920000000e8008100e800904178001141780063
:1009300082cf5100f8ff32000080eb000300390045
:100940000100370000000500100020000000060034
:100950006900e100040035006d00e100030034008f
:100960000002b10001003200000005001000050087
:10097000800078001104b100030035009101b1003e
:1009800001003c000050a000000006008201780039
:100990000400370090cf1000050032000000e8008e
:1009a0008301e9000300e000faff3a000000eb00d9
:1009b00000000600f0e480000000e00001003200ca
:1009c0000000010000ca2100000006006022b800fb
:1009d000060220000000d0008180d2000482d200f4
:1009e0008582d2000000a0000202520083825a00d9
:1009f00003003b000202420083824a000000a10083
:100a00000603e900f3ff3a0000000600020ab900fd
:100a1000001bb9000200b8008100420081004300c1
:100a2000000006000400fa00100798001e00900065
:100a3000000f7800030037000d0007000060fe0083
:100a40001e0fe9001e00e000fbff3a00100020002e
:100a5000000f7800010037001e0fe9001e00e000c3
:100a6000fdff3a00000000000080fa0000000600d0
:100a70000000fa000000000000000000000000007c
:100a80000080fa00000006000200fa00004f780023
:100a9000ccc2a900cac2bf0001c8b30001406000b7
:100aa0000004e000fbff3a001e407800f60e07004d
:100ab000ccc2a8000080fa00000006000200fa0084
:100ac000004f780011479800ccc2a900cac2bf00ed
:100ad00001c8b300014060000004e000fbff3a00e1
:100ae0001e407800e80e07001e409000e60e07004a
:100af000ccc2a8000080fa00000006000400fa0042
:100b000020479800ccc2a900cac2bf0001c8b300e8
:100b1000014060000004e000fbff3a00ae4090009e
:100b200000c8b30000cf70001e407800d60e07004a
:100b3000ed0e070010479800ccc2a8001e409000a0
:100b40000080fb000080fa00000006000400fa00ac
:100b500020479800ccc2a900cac2bf0001c8b30098
:100b6000014060000004e000fbff3a00ae4090004e
:100b700000ccb30000c07000c30e0700da0e0700ff
:100b8000004f7800ccc2a8001e80fb000080fa0055
:100b9000000006000800fa0020479800210798008e
:100ba00062479800ccc2a900cac2bf0001c8b30006
:100bb000014060000004e000fbff3a00ae409000fe
:100bc00000c4b30000c07000af0e07000040eb008f
:100bd000004f7800070037002e009000104078008a
:100be000a90e07002e0090000000e80020079800e2
:100bf0001e4fe8006e4090009e4f1000f6ff390037
:100c0000ccc2a8000080fa00000006000800fa002c
:100c1000204798002107980062479800ccc2a9009d
:100c2000cac2bf0001c8b300014060000004e00078
:100c3000fbff3a00ae40900000ccb30000c0700053
:100c4000910e07000040eb00004f780008003700cd
:100c5000a50e0700804078002e0090000148780023
:100c60002e0090000000e800200798001e4fe800ca
:100c70006e4090009e4f1000f5ff3900ccc2a800d6
:100c80000080fa00000006000200fa00ccc2a900b1
:100c9000cac2bf0001c8b300014060000004e00008
:100ca000fbff3a0000c0eb00770e07008e0e070036
:100cb000004f7800ccc2a8001e80fb000080fa0024
:100cc000000006000600fa0010079800414798004f
:100cd000ccc2a900cac2bf0001c8b3000140600075
:100ce0000004e000fbff3a00f0c7b300660e070007
:100cf0000040eb00004f7800070037001e80fb002b
:100d0000800078001e0090000080400010407800b5
:100d10005d0e07001e4fe8004e4090009e4f1000f1
:100d2000f6ff3900ccc2a8000080fa0000000600df
:100d30000000fa00cd02a800cd22a900ccc2a80074
:100d4000e001200037ff0700ccc2a900e00120002d
:100d500034ff0700ccc2a800d002200031ff0700fa
:100d6000ccc2a900cac2bf0001c8b30001406000e4
:100d70000004e000fbff3a0000c3b300420e07008e
:100d8000cac2bf0001c8b300014060000004e00017
:100d9000fbff3a00ccc2a8000080fa000000060069
:100da0000000fa0060c3b30037ff0700a0c3b30020
:100db00035ff070040c3b30033ff07000080fa008f
:100dc000000006000000fa0060c3b3002eff070019
:100dd000b0c3b3002cff070040c3b3002aff0700d5
:100de0000080fa00000006000400fa00004f7800be
:100df0001e80fb00100798001e009000e20f5000bc
:100e00005d0032001e009000e30f5000b000320081
:100e10001e009000e10f5000010032000101370078
:100e200081c0b300b0c0b30024ff07008040eb00d6
:100e3000c0c0b30021ff0700d1c5b300d0c0b300cc
:100e40001eff070031c9b300e0c0b3001bff07005d
:100e500011cbb300f0c0b30018ff070061c8b300a6
:100e600000c1b30015ff070031c8b30010c1b300c3
:100e700012ff070031c0b30020c1b3000fff07000d
:100e800021c2b30030c1b3000cff070081cfb30013
:100e900040c1b30009ff070041c4b30050c1b30013
:100ea00006ff0700f1c3b30070c1b30003ff0700e2
:100eb00081c1b30080c1b30000ff070031c0b3009f
:100ec000b0c1b300fdfe070001c4b300c0c1b30050
:100ed000fafe070011c9b300d0c1b300f7fe070046
:100ee00061c5b30010c2b300f4fe070001c1b30036
:100ef00020c2b300f1fe070061c1b30090c1b3008e
:100f0000eefe0700c1c6b300a0c1b300ebfe0700b0
:100f100091cab30030c2b300e8fe0700a1c0b3001d
:100f200040c2b300e5fe07008040eb0050c2b300b2
:100f3000e2fe070011c1b30060c2b300dffe07008c
:100f400091c5b30090c2b300dcfe070081c8b300b6
:100f5000c0c2b300d9fe070011c3b300d0c2b300b2
:100f6000d6fe0700b1c0b300e0c2b300d3fe070055
:100f70000060fe00ab00370061c0b300b0c0b3003a
:100f8000cefe07008040eb00c0c0b300cbfe0700e0
:100f9000d1c5b300d0c0b300c8fe070031c9b3004b
:100fa000e0c0b300c5fe070011cbb300f0c0b30032
:100fb000c2fe070081c7b30000c1b300bffe070037
:100fc00031c9b30010c1b300bcfe070031c0b3008b
:100fd00020c1b300b9fe070021c2b30030c1b30085
:100fe000b6fe070081cfb30040c1b300b3fe0700d7
:100ff00041c4b30050c1b300b0fe0700f1c3b30059
:1010000070c1b300adfe070081c1b30080c1b30061
:10101000aafe070031c4b300b0c1b300a7fe0700a9
:1010200001c4b300c0c1b300a4fe070011c9b300de
:10103000d0c1b300a1fe070061c5b30010c2b30068
:101040009efe070001c1b30020c2b3009bfe070053
:1010500061c1b30090c1b30098fe0700c1c6b300e0
:10106000a0c1b30095fe070091cab30030c2b3001f
:1010700092fe0700a1c0b30040c2b3008ffe07007c
:101080008040eb0050c2b3008cfe070011c1b300da
:1010900060c2b30089fe070091c5b30090c2b300df
:1010a00086fe070081c8b300c0c2b30083fe0700fc
:1010b00011c3b300d0c2b30080fe0700b1c0b300bb
:1010c000e0c2b3007dfe07000060fe00550037005f
:1010d000d1c5b300d0c0b30078fe070031c9b3005a
:1010e000e0c0b30075fe070011cbb300f0c0b30041
:1010f00072fe070071c0b300b0c0b3006ffe0700fe
:101100008040eb00c0c0b3006cfe0700d1c2b3004a
:1011100000c1b30069fe0700b1c3b30010c1b30042
:1011200066fe070031c7b30020c1b30063fe0700ad
:1011300021c2b30030c1b30060fe070081cfb3000d
:1011400040c1b3005dfe070011c0b30050c1b30041
:101150005afe0700f1c3b30070c1b30057fe070089
:1011600081c1b30080c1b30054fe070071ccb3004d
:10117000b0c1b30051fe07008040eb00c0c1b30016
:101180004efe070021cbb300d0c1b3004bfe0700d9
:1011900061cbb30010c2b30048fe070001c1b30029
:1011a00020c2b30045fe0700d1c1b30090c1b30017
:1011b00042fe0700c1c1b300a0c1b3003ffe07005b
:1011c000a1ceb30030c2b3003cfe0700a1c0b30003
:1011d00040c2b30039fe07008040eb0050c2b300ac
:1011e00036fe070011c1b30060c2b30033fe070032
:1011f00091c5b30090c2b30030fe070081c8b300b0
:10120000c0c2b3002dfe070011c3b300d0c2b300ab
:101210002afe0700b1c0b300e0c2b30027fe0700fa
:101220000060fe000080fa00000006000200fa00e4
:101230000e0078005d1b0700bdfe07004001200086
:10124000f8fd0700e1c0b3000040eb001bfe070003
:1012500061c0b30020c0b30018fe0700f1c3b300a3
:1012600060c0b30015fe0700c1c0b30070c0b3007a
:1012700012fe070051c0b30080c0b3000ffe07008c
:101280008040eb0090c0b3000cfe070020c0b3000c
:10129000d5fe07000040eb0035000700e0cfb300ab
:1012a000460007000040eb0014fe070098fcb70062
:1012b00020c0b30011fe070099fcb70060c0b30066
:1012c0000efe07009afcb70070c0b3000bfe0700cb
:1012d0009bfcb700000000000060fe000e007800dc
:1012e000421b07000080fa00000006000400fa001c
:1012f0000e80e8002d1b070040cbb300fffd070068
:10130000104798000e80e800381b07001e40900030
:101310000004e0000c003d001e4090008080fb00b7
:1013200000f02f00808040004f08de0001004000e8
:101330000080d1008040780090cbb30000c0400016
:10134000004f7800070037001e4090000080fb002f
:101350000000d1008040780090cbb30000c0400076
:10136000004f78001e80fb000080fa00000006009d
:101370000400fa00204798000e0078000b1b0700bd
:1013800060c3b300c0fd0700ae409000a0c0b30032
:10139000cafd070060c3b300bbfd0700a0c3b300d4
:1013a000b9fd070040c3b300b7fd07000e00780089
:1013b0000e1b07000080fa00000006000400fa007f
:1013c000204798000e007800f81a07008e80e80089
:1013d00012c0b300e0c3b300eefd07000e007800ba
:1013e000021b07000080fa00000006000600fa0059
:1013f000100798000e007800ec1a07001e009000fd
:10140000200798002e009000e10f50000f003200de
:101410002e009000e10f5000070039002e009000d0
:10142000e20f50000e0032002e009000e30f50003b
:101430000e0032001100370060c3b30092fd0700b8
:1014400040c3b30090fd07000c00370060c3b30039
:101450008dfd070020c3b3008bfd07000700370098
:1014600060c3b30088fd07000400370060c3b30009
:1014700085fd070050c3b30083fd07000e00780010
:10148000da1a07000080fa00000006000600fa00e1
:101490000e80e800c51a070050c3b300abfd07007b
:1014a0007f406000104798000e80e800cf1a0700c8
:1014b0001e4090000080fb00200798002e00900046
:1014c000e20f5000110032002e009000e20f500099
:1014d00004003c002e009000e10f50000800320094
:1014e000130037002e009000ed0f50000a0032006c
:1014f0002e009000f30f50000a0032000c0037005d
:1015000020c0b300004f78000b00370010c0b300bc
:10151000004f7800080037000040eb00004f7800d3
:101520000500370030c0b300004f780002003700dc
:1015300000c0eb00004f78001e80fb000080fa0026
:10154000000006000400fa000e80e800971a070069
:1015500050c3b3007dfd07007f4f60000e80e800a0
:10156000a21a07000060fe0010c1b3009e4f1000d9
:1015700005003a00a0c3b30043fd070040c3b30019
:1015800041fd07001a00370060c1b3009e4f1000f4
:1015900005003a00b0c3b3003bfd070040c3b300f1
:1015a00039fd07001200370010c0b3009e4f100035
:1015b00003003a0040c3b30033fd07000c003700be
:1015c0001e04e00005003a0060c3b3002efd0700d2
:1015d00040c3b3002cfd070005003700d0c0b300a6
:1015e0009e4f100002003a000000000000000000c2
:1015f0000080fa00000006001400fa0010c0b300da
:10160000204f98002000200078ff07000000eb002a
:1016100076ff07000040eb003047980020c0b30081
:1016200020479800fc0d0700600798006e009000ae
:10163000dc0d0700000f7800ae40900020c0b30022
:10164000c00d0700600798009e0078006e009000b3
:101650000088b90000004000000040000000400089
:10166000f0fc0700cbc2bf000080fb004400de009e
:101670006140600040479800240037003e409000e1
:101680000040e800304798002e4090000080fb00aa
:101690000000e800100f98001e089000e50f5000b1
:1016a0000200340050002000100f98002e509000cf
:1016b00020479800ae40900020c0b300a10d070065
:1016c000600798009e0078006e0090000088b900c6
:1016d000000040000000400000004000d1fc070076
:1016e000cbc2bf000080fb004400de006140600010
:1016f000404798003e409000e54f50000300360000
:101700000000eb00000f98004a0037004e409000a8
:101710000004e000d9ff3a00370c070030079800ba
:10172000410798009680a900300020002fff070095
:1017300010003700300c07000001be003e00900092
:10174000ce009000310c07000001be00a000200078
:1017500001002000800f5100818f590005003600e4
:101760000000eb0021ff07000040eb00204f980035
:1017700004003700cbc2bf000042b2000004e0000a
:10178000ecff32001c0c070030079800410798005e
:1017900010003700180c07000001be003e0090004a
:1017a000ce009000190c07000001be00e0012000ef
:1017b00001002000800f5100818f59000500360084
:1017c0000000eb0009ff07000040eb00204f9800ed
:1017d000070037002e4890000004e00004003200ab
:1017e000cbc2bf000042b2000004e000e9ff3a00b3
:1017f0000060fe008680a9009680a8002e48900018
:101800000004e00004003200111a0700100020005c
:10181000000f9800070037006e004700e31907002b
:1018200068fd07006e004700f01907000000eb009c
:10183000000f98000e0890000080fa0000000600db
:101840000600fa000040eb00404798000d0037000a
:101850004e4090008080fb00800420000088b9008a
:1018600080007800a00321008080400011007800f3
:101870000080a100800878004e4090000040e80001
:10188000404798004e409000e44f5000f0ff360073
:101890000000eb00907e88000000eb00a07e880036
:1018a0006000b800b07e8800c17e88006000b8008b
:1018b000d07e8800e17e88000040eb00e8efb700b2
:1018c0000000eb00f07e88006000b800007f880018
:1018d000117f88006000b800207f8800317f880079
:1018e00020c3b300e9efb7000040eb00eaefb70018
:1018f000ec0fa900ec2fa900ec4fa900ec6fa90098
:10190000ec8fa900ecafa800eccfa900ecefa90088
:10191000ed4fa80010002000707f8800f00fa80095
:10192000f02fa900f04fa800ed6fa800ed0fa9005f
:10193000ed2fa900f411a900f431a900f451a90078
:10194000f471a900f491a900f4b1a900f4d1a9009f
:10195000f4f1a9000000eb00b08f88000000eb005c
:10196000c08f88000000eb00d08f88000000eb00e3
:10197000e08f88000000eb00f08f88000000eb0093
:10198000009088000000eb00109088000000eb0041
:10199000907f88000040eb005cf1b7000000eb0096
:1019a000f08a88000040eb0060f1b7000040eb00d7
:1019b00062f1b7000000eb00208b88000000eb0014
:1019c000308b88006000b800408b8800518b880005
:1019d0006000b800608b8800718b88000040eb00cd
:1019e00070f1b7000000eb00908b88000000eb0066
:1019f000a08b88000000eb00b08b88000000eb009b
:101a0000c08b88000000eb00d08b88000000eb004a
:101a1000e08b88000040eb00aef1b7000040eb0027
:101a2000aff1b7000040eb00b0f1b7000040eb00b1
:101a300040479800090037004e4090008080fb002e
:101a4000201b2100808040000040eb00804878008f
:101a50004e4090000040e80040479800ce40900083
:101a600000c4b30080cf5000f3ff36000040eb000d
:101a7000f3f1b7000060fe000c000700907f8000cb
:101a800001002000008fbe00b81b07000004e0002a
:101a900003003a001e007800907f8800c51b0700f5
:101aa000520807000080fa00000006001800fa0043
:101ab00066004700871b0700004f78000a003700c8
:101ac00068004700780b07008096290020079800df
:101ad000e80047002e0090006e1b070066004700dc
:101ae0007c1b0700004f7800be0090008096290004
:101af000808f5000f2ff3a001e04e000f0ff320039
:101b000070004700861b0700d71b070061fd2000ff
:101b1000700047008200200089fa07001007980033
:101b20001a003700f000470060fd200007000900a0
:101b3000315878008000b1008100b1000000eb0056
:101b4000907e88000000eb00a07e88000000eb0083
:101b5000f07e8800ed0fa800ed2fa800d41b070031
:101b60000000eb00907f8800f34fa80000ccb3008a
:101b7000f2efb7008f1b070061fd200070004700e7
:101b8000820020006efa0700100798001e009000e7
:101b90000000e000e3ff3a000a0007000060fe00da
:101ba0000080fa00000006000000fa00c01b0700d9
:101bb000e41b07007f1b07000060fe000080fa00a6
:101bc000000006000000fa00831b0700941b0700ba
:101bd000a51b0700c91b07000060fe000080fa007b
:101be000000006001800fa00200f9800e3004700ec
:101bf0000020290007000900b05878008100b100da
:101c00008000b100eb004700801f29000700090099
:101c1000b05878008100b1008000b100917f800051
:101c200000202000008060000000e0000c00320076
:101c30002e08900090009000907e8000808f5000d1
:101c4000070032002e08900010009000e10f4000c5
:101c5000030032000000eb00300f98005d003700f9
:101c6000907f800001202000010060000000e00063
:101c7000160032002e08900010407800e84f500007
:101c800012003a002e089000a0009000a07e800074
:101c9000808f500003003a0010002000300f9800a1
:101ca0004c0037002e08900020009000e10f40000b
:101cb00003003a0010002000300f98004500370064
:101cc0000000eb00300f980042003700907f80004a
:101cd00001202000010060000000e0000b003a003d
:101ce0002e08900010407800e84f500007003a009e
:101cf0002e08900020009000e10f400033003a00d1
:101d000010002000300f980032003700907f8000d4
:101d100001202000010060000000e0002b003a00dc
:101d20002e08900010407800ec4f500027003a0039
:101d30002e08900066004000eb0047008200200063
:101d4000fff90700004f780061fd20002e08900089
:101d50006600400082002000f9f907002047980043
:101d60002e08900066004000e3004700820020003b
:101d7000f3f90700104798000060fe001e04e00021
:101d800003003a000000eb00300f9800110037000c
:101d90002e4090000004e00003003a0010002000f4
:101da000300f98000b0037001e4090000004e00048
:101db00003003a0010002000300f980005003700a3
:101dc0000000eb00300f9800020037000000eb002d
:101dd000300f98003e0890000080fa0000000600d6
:101de0000e00fa00204f98000040eb00004f7800f2
:101df0009e80fb000e80e8008080400030c0b30071
:101e0000804878001e4fe8009e80fb000e80e800ae
:101e10008080400020c0b300804878001e4fe8005a
:101e20009e80fb000e80e800808040000040eb00b8
:101e3000804878001e4fe8009e80fb000e80e8007e
:101e400000804000ae489000014878001e4fe80036
:101e50009e80fb000e80e8008a0b07004007980078
:101e60009e80fb000e4990000e80e800008040003c
:101e7000024878001e4fe8009e80fb001e4990003b
:101e80000e80e80000804000024878001e4fe80005
:101e90000e80e8001040780080c0e8000e80e80066
:101ea000014878000e80e8009e40780085fb07001e
:101eb0000060fe00a0c3b30024fb07000074a10073
:101ec000104798001e409000e64f5000040032007a
:101ed000bcfb07000000eb0060079800040037001f
:101ee0000060fe00c4fd07000080fb006007980052
:101ef0006e0090000080fa00000006000400fa0066
:101f0000204798000040eb00004f780002003700a7
:101f1000480907001e4fe8002e4090009e4f100019
:101f2000fbff39000080fa00000006000800fa00fc
:101f3000881f78000040eb0010479800c509070093
:101f40000004e00011023200b0d1bf000004e00044
:101f50000e023a000040eb00f3f1b700350907002c
:101f60005cf1b7005cd1bf00644050005cf1b70089
:101f7000331f2100934178008380fb00c2152100ac
:101f800012417800201b21000080400002487800a8
:101f90000340e800f3f1b700260907005ef1b7003f
:101fa000240907005ff1b700331f21009341780037
:101fb0008380fb00e215210012417800201b2100e4
:101fc00000804000024878000340e800f3f1b700c9
:101fd000331f2100934178008380fb00f21521001c
:101fe00012417800201b2100008040000248780048
:101ff0000340e800f3f1b7000e09070060f1b700f5
:10200000331f2100934178008380fb0002162100da
:1020100012417800201b2100008040000248780017
:102020000340e800f3f1b700f08a800067406000e9
:10203000004f78001e409000634040001047980019
:102040000060fe0020c0b3009e4f100021003a0047
:102050005cd1bf00e34f50001e003a00f5080700b6
:10206000acf1b700f3080700adf1b700f3d1bf0042
:102070008080fb00201b2100020b07002007980036
:10208000ec080700aef1b700ea080700aff1b700af
:10209000ae009000608d8000808f500008003a00f4
:1020a000afd1bf000004e00005003d0010c0b30048
:1020b000b0f1b7001000200030079800b5013700dc
:1020c0000040eb00b0f1b7000000eb0030079800d3
:1020d000b001370010c0b3009e4f10000500320061
:1020e00030c0b3009e4f1000020032001e04e0001a
:1020f0009a013a00f18a800000c0200080806000d0
:1021000000802000808f500036003a00c908070088
:1021100072f1b700c708070073f1b70080c0b300c1
:1021200070f1b700c308070074f1b700c1080700d9
:1021300075f1b7001e4090006440400010479800c1
:10214000331f2100934178008380fb002217210078
:1021500012417800201b21000080400002487800d6
:102160000340e800f3f1b700331f210093417800ea
:102170008380fb003217210012417800201b2100d0
:1021800000804000024878000340e800f3f1b70007
:10219000331f2100934178008380fb004217210008
:1021a00012417800201b2100008040000248780086
:1021b0000340e800f3f1b700331f2100934178009a
:1021c0008380fb005217210012417800201b210060
:1021d00000804000024878000340e800f3f1b700b7
:1021e0005e003700f18a800000c02000808060001f
:1021f00000c02000808f50003b003a008d0807008f
:1022000072f1b7008b08070073f1b700c0c0b300cc
:1022100070f1b7008708070076f1b700850807005e
:1022200077f1b7008308070078f1b700810807004d
:1022300079f1b7007f0807007af1b7007d08070041
:102240007bf1b7007b0807007cf1b7007908070035
:102250007df1b7001e4090006a4040001047980092
:10226000331f2100934178008380fb002217210057
:1022700012417800201b21000080400002487800b5
:102280000340e800f3f1b700331f210093417800c9
:102290008380fb003217210012417800201b2100af
:1022a00000804000024878000340e800f3f1b700e6
:1022b00062172100f3d1bf000080fb00800078008e
:1022c000201b2100008040000700090032587800e0
:1022d0008000b1008200b100f3d1bf00684040002f
:1022e000f3f1b7001d003700f08a800001c0200024
:1022f000010060000000e0000d003a001e04e00054
:1023000016003200c1152100914078001e40900057
:1023100000c0500064404000f8fe07000040eb00a1
:10232000b0f1b7000000eb0030079800190137004a
:10233000c1152100914078001e40900000c050005f
:1023400064404000edfe07000040eb00b0f1b70034
:102350000000eb00300798000e013700f08a800083
:1023600001002c00010060000000e0007800320055
:10237000f08a800001042000010060000000e000fd
:102380001b003a002b08070064f1b700290807007a
:1023900065f1b7001e40900000c0e80010479800ab
:1023a000331f2100934178008380fb0042162100f7
:1023b00012417800201b2100008040000248780074
:1023c0000340e800f3f1b700331f21009341780088
:1023d0008380fb005216210012417800201b21004f
:1023e00000804000024878000340e800f3f1b700a5
:1023f000f18a800000002c0080806000000028002e
:10240000808f50001e003a0000c8b30062f1b70090
:102410000808070066f1b7000608070067f1b70073
:102420001e40900000c0e80010479800331f2100b4
:10243000934178008380fb006216210012417800ee
:10244000201b210000804000024878000340e80083
:10245000f3f1b700331f2100934178008380fb0024
:102460007216210012417800201b210000804000dc
:10247000024878000340e800f3f1b700420037005b
:10248000f18a800000002c008080600000002c0099
:10249000808f500023003a0000ccb30062f1b700f7
:1024a000e407070068f1b700e207070069f1b70029
:1024b000e00707006af1b700de0707006bf1b7001d
:1024c000dc0707006cf1b700da0707006df1b70011
:1024d000d80707006ef1b700d60707006ff1b70005
:1024e0001e4090006840400010479800821621006e
:1024f000f3d1bf000080fb0080007800201b21008a
:102500000080400007000900325878008000b100c8
:102510008200b100f3d1bf0068404000f3f1b70082
:1025200019003700c1152100914078001e4090002d
:1025300000c050006440400070fe07000040eb0007
:10254000b0f1b7000000eb003007980091003700b1
:1025500030c0b3009e4f10000b003200c1152100a7
:10256000914078001e40900000c050006440400040
:1025700062fe07000040eb00b0f1b7000000eb0086
:1025800030079800830037005cd1bf008080fb00db
:102590001e4090000080fb0000805000e4004000de
:1025a000d0022000808f50000b003400c1152100a4
:1025b000914078001e40900000c0500064404000f0
:1025c0004efe07000040eb00b0f1b7000000eb004a
:1025d000300798006f0037000060fe000040eb00fd
:1025e00020479800190037002e4090000084fb001f
:1025f0009007070080407800e017210000004400a9
:1026000001487800321f2100124178008281fb00ce
:102610002e4090000080fb002102200080804000be
:10262000c01521000080400090407800201b210050
:1026300000804100014878000240e800f3f1b70053
:102640002e4090000040e800204798002e40900067
:102650000081fb005cd1bf008080fb001e40900029
:102660000080fb0000805000800f5100deff35002d
:1026700070070700acf1b7006e070700adf1b700b7
:102680006c070700aef1b700aed1bf00210707000d
:10269000aef1b70067070700aff1b7001e04e00016
:1026a00009003200001721004efd07000004e00081
:1026b00005003a000040eb00b0f1b7000000eb006d
:1026c0003007980033003700f3d1bf008080fb0053
:1026d000201b21006b090700200798000060fe0006
:1026e000618d80002e009000808f500016003a000f
:1026f000afd1bf000004e00013003d00f08a80006d
:1027000001022000010060000000e0000200320031
:1027100060d1bf00b2fd070010c0b300b0f1b70038
:10272000c1152100914078001e40900000c050006b
:102730005cf1b7004d1607000060fe00100020009d
:1027400030079800130037000040eb00b0f1b700ed
:102750000000eb00300798000e003700c115210083
:10276000914078001e40900000c05000644040003e
:10277000e2fd07000040eb00b0f1b7000060fe0092
:102780000000eb0030079800020037000000eb006b
:10279000300798003e0090004f0478000080fa0057
:1027a000000006000a00fa00200798006147980020
:1027b000f2cfbf00104798002e009000104f780015
:1027c0006e4090000044b200204798000040eb00ab
:1027d000f3f1b700321f2100124178008280fb0024
:1027e000201b2100808040000040eb0080487800e2
:1027f0000240e800f3f1b700321f210012417800d7
:102800008280fb00201b210000804000ee409000f1
:10281000014878000240e800f3f1b700321f2100c0
:10282000124178008281fb001e4090009e407000a3
:10283000201b210000804100014878000240e80090
:10284000f3f1b700321f2100124178008281fb00b2
:10285000e8cfbf000040e800e8efb70081fe2000ad
:1028600091407800201b2100008041000148780041
:102870000240e800f3f1b7000060fe001e04e00033
:102880007300320080c0b3009e4f100031003a0048
:10289000321f2100124178008281fb002e0090003f
:1028a000a0409000201b21000080410001487800da
:1028b0000240e800f3f1b700321f21001241780016
:1028c0008281fb002e009000b0409000201b210070
:1028d00000804100014878000240e800f3f1b700b1
:1028e000321f2100124178008281fb002e009000ef
:1028f000c0409000201b210000804100014878006a
:102900000240e800f3f1b700321f210012417800c5
:102910008281fb002e009000d0409000201b2100ff
:1029200000804100014878000240e800f3f1b70060
:102930002e00900020009000e10f400044003a007b
:10294000b3d1bf00f1cdb30001406000b3f1b700d7
:102950003f003700c1c0b3009ecf100037003a00df
:10296000321f2100124178008281fb002e0090006e
:10297000a0409000201b2100008041000148780009
:102980000240e800f3f1b700321f21001241780045
:102990008281fb002e009000b0409000201b21009f
:1029a00000804100014878000240e800f3f1b700e0
:1029b0002e00900066014000f3d1bf000080fb00b4
:1029c00080007800201b21000080400007000900e3
:1029d000325878008000b1008200b100f3d1bf000e
:1029e00068404000f3f1b7002e00900030019000e5
:1029f000c00190000080eb008080eb00800f510050
:102a0000818f590012003a002e0090005001900072
:102a1000e00190000080eb008080eb00800f51000f
:102a2000818f59000a003a00b3d1bf00f1cdb30045
:102a300001406000b3f1b700050037000040eb0033
:102a4000f3f1b7000000eb00400798004f0037009b
:102a50001e4090000004e000460032002e4090002e
:102a60000004e00014003a00331f21009341780075
:102a70008380fb0022fd200012417800201b2100f2
:102a800000804000024878000340e800f3f1b700fe
:102a9000331f2100934178008380fb0032fd20002a
:102aa00012417800201b210000804000024878007d
:102ab0000340e800f3f1b7009e40900000c8b30067
:102ac00080cf500015003a00331f21009341780059
:102ad0008380fb0042fd200012417800201b210072
:102ae00000804000024878000340e800f3f1b7009e
:102af000331f2100934178008380fb0052fd2000aa
:102b000012417800201b210000804000024878001c
:102b10000340e800f3f1b700160037009e40900034
:102b200000ccb30080cf50000d003a00f3d1bf00bd
:102b30000080fb0080007800201b21000080400006
:102b400061fd200007000900315878008000b100c5
:102b5000f3d1bf0068404000f3f1b7000500370033
:102b60000040eb00f3f1b7000000eb0040079800d5
:102b700006003700f3d1bf000040e900b2f1b70012
:102b80000060fe0011002000410798004e009000f8
:102b90000080fa00000006000800fa0020079800f4
:102ba00061479800b2d1bf000080fb00000f7800a1
:102bb0009e00e800f3d1bf000080fb00808f500032
:102bc0001d003a000000eb001007980010003700cd
:102bd000321f2100124178008281fb002e009000fc
:102be00090407800201b21000080410001487800bf
:102bf0000240e800f3f1b7002e0090000000e8006a
:102c0000200798001e0090000000e80010079800c0
:102c10006e4090008080fb001e009000808f50006e
:102c2000ebff3e00f3d1bf000040e900b2f1b70076
:102c30000060fe00020037000040eb00f3f1b70037
:102c40000080fa00000006000a00fa00f3d1bf007d
:102c500010479800b2d1bf00204798001e40900056
:102c60008080fb002e4090000080fb000000e80008
:102c7000808f5000050032000040eb00f3f1b700f8
:102c80000000eb00400798002a003700660047006c
:102c9000c61407002e4090000080fb000000e800f2
:102ca00080007800201b2100f6070700200798000d
:102cb0006400470021c0b300b7ff0700f3d1bf0095
:102cc00010479800311f210091407800201b2100ff
:102cd000fcf70700a0c3b3009cf707000074a10035
:102ce00020479800ae4090001e40900080cf5000da
:102cf0000600320033f8070066004700bb140700e7
:102d00000000eb00400798000a0037000060fe005a
:102d100066004700b514070037fa0700004f780037
:102d2000b80007000040eb00f3f1b7001e80fb0085
:102d3000400798004e0090000080fa000000060056
:102d40001e00fa000040eb0040479800f6004700e4
:102d50008020290007000900b05878008100b100e8
:102d60008000b100208b800070079800660047004b
:102d7000e117210007000900315878008000b100f8
:102d80004e40900068404000404798004e40900000
:102d90000080fb002102200080804000c01521003f
:102da0000080400010407800005798004e4090008e
:102db0000040e800404798004e4090000080fb0033
:102dc0002102200080804000c015210000804000ca
:102dd00010407800105798004e4090000040e800e6
:102de0004047980066004700f60047008200200038
:102df000d3f507000000e000030032000e08900049
:102e0000e10f400004003a000040eb00b0f1b700d1
:102e10000060fe002800370066004700fd03070041
:102e2000100798000e08900028040700000f780093
:102e30001e009000e10f40000d003a006000b80055
:102e4000100f9800210f9800aed1bf003105070088
:102e500020579800660047001e0a9000ae0a9000b6
:102e60000e099000fe009000730307000f0037006a
:102e70001e0090009e0f50000c0032006000b80051
:102e8000100f9800210f9800aed1bf002105070058
:102e9000205798001e0a9000ae0a90000e0990007c
:102ea000fe0090001e009000660407000040eb004a
:102eb000b0f1b7000060fe000080fa0000000600dc
:102ec0000200fa007ed1bf00004f78001e80fb0098
:102ed000e70f50000100320004003700cb0207006a
:102ee0000040eb00b0f1b700020037000040eb00fb
:102ef000b0f1b7000080fa00000006000200fa00fe
:102f000060d1bf00004f78001e407800900007009d
:102f10000040eb00b0f1b7000060fe000080fa0056
:102f2000000006000400fa000040eb001047980083
:102f3000fefb07000004e0002c003200f08a800055
:102f400067406000004f78001e80fb00100798006b
:102f50001e009000e10f50001a0032001e00900089
:102f6000e10f500004003c001e0090000000e00053
:102f7000080032001b0037001e009000e20f5000d6
:102f8000080032001e009000e30f500009003200dc
:102f9000140037006aff07000040eb00b0f1b700f3
:102fa00012003700d5ff07000040eb00b0f1b7007a
:102fb0000e003700c2ff07000040eb00b0f1b70081
:102fc0000a0037005cd1bf00104798001e409000f7
:102fd0000004e00005003a000040eb00b0f1b7004b
:102fe000020037000040eb00b0f1b700c00107005d
:102ff0000060fe001e4090000080fb000080fa0090
:10300000000006000400fa00881f7800b3d1bf005a
:1030100001c2b300014f60001e04e00003003a004b
:103020000080eb0010079800450037000040eb00df
:10303000104798003d0037001e4090008080fb0044
:10304000800420000088b9006104200080804000d6
:1030500040ff200000804000100078004800de00a3
:10306000614060000004e0002d003a00f3d1bf0091
:103070000081fb001e4090008080fb008004200047
:103080000088b9008000780040ff200000804000e8
:10309000211b21003bf507001e4090000084fb002f
:1030a000d50507000001be008004200000c0b90063
:1030b0008000780060032100008040000288be008c
:1030c0001e4090008080fb00800420000088b90032
:1030d00080007800a0032100808040000040eb00c9
:1030e000804878001e4090008080fb008004200013
:1030f0000088b90080007800a00321008080400093
:10310000110078000080a000800878000060fe00b8
:103110001e4090000080fb00100798000800370058
:103120001e4090000040e800104798001e409000ac
:10313000e44f5000c0ff36008080eb00110798007c
:103140001e0090004f0478000080fa000000060086
:103150000600fa00204798000040eb001047980056
:10316000620037001e4090008080fb008004200039
:103170000088b900e300400040ff200000804000cc
:10318000104f78002e4090009e4f100054003a00df
:103190001e4090008080fb00800420000088b90061
:1031a000610420008080400040ff2000008040003b
:1031b000100078004800de00614060000004e0007c
:1031c000470032001e4090008080fb0080042000f9
:1031d0000088b90080007800a003210080804000b2
:1031e000110078000080a100800878001e40900047
:1031f0008080fb00331f2100934178000381fb0096
:10320000800420000088b9008200400040ff2000b8
:10321000808040000040eb00804878000340e800d8
:10322000f3f1b7001e4090008080fb00331f2100a7
:10323000934178000381fb00800420000088b900de
:103240008200400040ff2000808040000040eb00f2
:10325000804878000340e800f3f1b7001e4090007a
:103260008080fb00331f2100934178000381fb0025
:10327000800420000088b9008200400040ff200048
:10328000808040000040eb00804878000340e80068
:10329000f3f1b7001e4090008080fb00331f210037
:1032a000934178000381fb00800420000088b9006e
:1032b0008200400040ff2000808040000040eb0082
:1032c000804878000340e800f3f1b7000060fe009a
:1032d0001e4090000080fb00200798000800370087
:1032e0001e4090000040e800104798001e409000eb
:1032f000e44f50009bff36000080eb002007980051
:103300002e0090000080fa00000006000600fa007f
:10331000204798000040eb00104798001f0037003e
:103320001e4090008080fb00800420000088b900cf
:10333000e300400040ff200000804000104f780074
:103340002e4090009e4f100011003a001e40900049
:103350008080fb00800420000088b9006104200008
:103360008080400040ff2000008040001000780076
:103370004800de00614060000004e000040032000c
:103380001e4090000080fb002007980008003700d6
:103390001e4090000040e800104798001e4090003a
:1033a000e44f5000deff36000080eb00200798005d
:1033b0002e0090000080fa00000006001400fa00c1
:1033c0006007980071079800025798000000eb0012
:1033d00020079800be003700ae0090008004200057
:1033e0000088b900610420008080400040ff200078
:1033f00000804000100078004800de00614060005e
:103400000004e000af0032000040eb0010479800dd
:10341000ae0090001e4090000081fb008004200060
:103420000088b9008200400040ff2000008040007a
:1034300090407800314798001e4090000040e8001e
:1034400010479800ae0090001e4090000081fb00e5
:10345000800420000088b9008200400040ff200066
:103460000080400010407800604798001e409000a7
:103470000040e80010479800ae0090001e40900009
:103480000081fb00800420000088b9008200400019
:1034900040ff2000008040001040780070479800f6
:1034a0001e4090000040e80010479800ae009000d9
:1034b0001e4090000081fb00800420000088b900bd
:1034c0008200400040ff20000080400090407800d3
:1034d000214798001e4090000040e80010479800e7
:1034e00040c0b30010479800be00900000c020000c
:1034f0008080600000802000808f500004003a002f
:103500001e409000644040001047980003003700c0
:103510001e4090006a404000104798003e00900016
:1035200001042000010060000000e00003003a00f8
:103530001e40900000c0e80010479800be009000b8
:1035400000002c008080600000002800808f500068
:1035500004003a001e40900000c0e80010479800a8
:10356000030037001e40900068404000104798005c
:103570001e40900000c0e80010479800ae00900088
:103580001e4090000081fb00800420000088b900ec
:103590008200400040ff2000008040001040780082
:1035a000004f98001e4090000040e800104798002f
:1035b000ae0090001e4090000081fb0080042000bf
:1035c0000088b9008200400040ff200000804000d9
:1035d00010407800104f98001e4090000040e80016
:1035e00010479800ae0090001e4090000081fb0044
:1035f000800420000088b9008200400040ff2000c5
:103600000080400010407800204f98001e4090003d
:103610000040e80010479800ae0090001e40900067
:103620000081fb00800420000088b9008200400077
:1036300040ff20000080400010407800304f98008c
:103640001e4090000040e800104798001e40900087
:103650000040e80010479800ae0090001e40900027
:103660000081fb00800420000088b9008200400037
:1036700040ff200000804000104f78001e40900066
:103680000040e800104798000060fe00ce00900067
:103690006e009000808f50000a003a00de0090001b
:1036a0007e009000808f500006003a000e5090007f
:1036b0009e4f500003003a002e009000100f98001b
:1036c000080037002e0090000000e8002007980056
:1036d0002e009000e40f50003fff36008080eb008a
:1036e000110f98001e0890000080fa0000000600ec
:1036f0000200fa00881f78000040eb001047980095
:103700009f0037001e4090008080fb008004200056
:103710000088b900610420008080400040ff200044
:1037200000804000100078004800de00614060002a
:103730000004e0008f0032001e4090008080fb00fb
:10374000800420000088b9006104200080804000cf
:1037500040ff20000080400010407800e24f500001
:103760000b0036001e4090008080fb00800420008b
:103770000088b90080007800a0032100808040000c
:10378000110078000080a1008008780079003700df
:10379000190407000001be001e4090008080fb005d
:1037a000800420000088b9002104200080804000af
:1037b00040ff2000008040001000be0013040700fe
:1037c0000001be00e9cfbf000080fb000100200027
:1037d000800f5100818f5900260036001e40900056
:1037e0008080fb00800420000088b9006104200074
:1037f0008080400040ff20000080400010407800a2
:10380000e24f50001b003a001e4090000084fb0075
:10381000f90307000001be008004200000c0b900c9
:103820008000780060032100008040000288be0014
:103830001e4090000081fb00800420000090b90031
:10384000610420008080400040ff20000080400094
:10385000104078008041e800800420000090b9000a
:1038600080007800a0032100008040000348780019
:1038700040003700e00307000001be001e4090003a
:103880008080fb00800420000088b9002104200013
:103890008080400040ff2000008040001000be00fb
:1038a000da0307000001be00e9cfbf000080fb0083
:1038b00001002000800f5100818f59002d0036003b
:1038c0001e4090008080fb00800420000088b9002a
:1038d0008000780040ff200000804000104f7800fa
:1038e0001e4090008080fb00800420000088b9000a
:1038f0008000780040ff2000008040009e4078005b
:10390000f0f407003cf707001e4090000084fb0025
:10391000b90307000001be008004200000c0b90008
:103920008000780060032100008040000288be0013
:103930001e4090000081fb00800420000090b90030
:10394000610420008080400040ff20000080400093
:10395000104078008041e800800420000090b90009
:1039600080007800a0032100008040000348780018
:103970000060fe001e4090000040e80010479800e4
:103980001e409000e44f50005eff36004f04780068
:103990000080fa00000006000200fa000040eb0080
:1039a000004f78000040eb001047980011003700ee
:1039b0001e4090008080fb00800420000088b90039
:1039c000610420008080400040ff20000080400013
:1039d000100078004800de00614060000004e00054
:1039e000010032001e4fe8001e4090000040e80039
:1039f000104798001e409000e44f5000ecff360046
:103a00001e80fb000080fa00000006003800fa006b
:103a10000040eb00004f78008e80e8000040eb0093
:103a2000804878000e80e8008040eb005dfb0700d6
:103a300062fd20001e80fb008000780070004700bf
:103a40000100400007000900325878008000b100f2
:103a50008200b1001e407800684f40009e80fb004d
:103a600042fd2000124178007000470000804000b5
:103a7000024878001e4fe8009e80fb0052fd2000a7
:103a80001241780070004700008040000248780032
:103a90001e4fe800700047009e4078003efc070083
:103aa0000060fe0068fc07000080fb000080fa0058
:103ab000000006001600fa000040eb0010479800d6
:103ac000e800470080c0b30080487800e800470065
:103ad0000080eb0090009800e80047000080eb00b9
:103ae000a0009800f2cfbf00004f78000040eb002c
:103af000f2efb7006800470031c0b30029fb0700b0
:103b00001e407800f2efb7001e4090008080fb005e
:103b10000e80e8008080400070c0b30080487800cc
:103b20001e4090000040e800104798000e80e8001a
:103b30009e40900018fc07000060fe0042fc070059
:103b40000080fb000080fa00000006000800fa0078
:103b50001007980021079800f2fc07000080fb0086
:103b6000000f78001e00e0001b003200211621002b
:103b7000914078001e00900001487800218b800061
:103b80001e00900011009800318b80001e009000f4
:103b900021009800811621001e0090006600400060
:103ba00007000900315878008000b1008100b100a1
:103bb0002e009000e11721001e01780071f207002d
:103bc0000040eb00b0f1b7000060fe001e0078007e
:103bd00030079800020037000000eb003007980023
:103be0003e0090000080fa00000006000200fa008b
:103bf0000000eb00000f78000a0037001e0078007c
:103c00000000400000004000000040008000400034
:103c1000e0412100008140006000b8000089be0042
:103c20001e0fe800300120009e0f1000f3ff360049
:103c30000080fa00000006000e00fa00100798004d
:103c4000210798003207980044079800550798000c
:103c50000000eb00000f7800430037001e007800e2
:103c60000000400000004000000040000000400054
:103c7000ee0040002041210000804000100078004c
:103c80004900de00614060000004e00035003a00b9
:103c90001e0190001e00780000004000000040005f
:103ca00000004000800040002041210000804000d2
:103cb00007000900325878008000b1008200b1008e
:103cc0001e0078003e01900000004000000040000f
:103cd0000000400080004000a04121000080400022
:103ce000020878001e0078002e01900000004000bd
:103cf000000040000000400080004000c041210062
:103d000000804000020878001e0078004e019000fc
:103d1000de01900000004000000040000000400074
:103d200080004000e0412100008040000288be0089
:103d30001e0078000000400000004000000040002d
:103d40008000400000422100808040001100780087
:103d50000090a000800878001e007800600798009e
:103d6000060037001e0fe800300120009e0f1000f3
:103d7000baff36000080eb00600798006e009000ec
:103d80000080fa00000006000400fa00000f78002e
:103d9000300120009e0f100019003e001e00780028
:103da0000000400000004000000040000000400013
:103db000ee0040002041210000804000100078000b
:103dc0004900de00614060000004e0000c003200a9
:103dd0001e0078000000400000004000000040008d
:103de00080004000e0412100008140006000b800f8
:103df0000089be001e0078001007980002003700fe
:103e00000080eb00100798001e0090000080fa0070
:103e1000000006000800fa00200798000000eb00f0
:103e200010079800210037001e009000000040009d
:103e3000000040000000400000004000ee00400094
:103e40002041210000804000100078004900de0081
:103e5000614060000004e00011003200ae019000fb
:103e60001e009000000040000000400000004000e4
:103e7000800040002041210000804000820020009e
:103e800083007800aef10700000f78001e00e0000c
:103e900003003a001e009000300798000800370029
:103ea0001e0090000000e800100798001e0090001f
:103eb000f30f5000dcff36000080eb003007980065
:103ec0003e0090000080fa00000006000600fa00a4
:103ed000100798000000eb00000f78001d0037006d
:103ee0001e0078000000400000004000000040007c
:103ef00000004000ee004000204121000080400012
:103f0000100078004900de00614060000004e0001d
:103f10000f0032001e00780000004000000040004a
:103f20000000400000004000e80040002041210067
:103f300000804000900078001e009000808f5000ac
:103f400003003a001e0078002007980006003700a2
:103f50001e0fe800300120009e0f1000e0ff360029
:103f60000080eb00200798002e0090000080fa00ef
:103f7000000006000800fa00000f78001107980002
:103f800022079800300120009e0f100028003e00fc
:103f90001e007800000040000000400000004000cb
:103fa00000004000ee004000204121000080400061
:103fb000100078004900de00614060000004e0006d
:103fc0001b0032001e00780000004000000040008e
:103fd000000040008000400020412100008040009f
:103fe000800078001e00900007000900315878001a
:103ff0008000b1008100b1001e0078000000400088
:10400000000040000000400000004000e8004000c8
:104010002041210000804000900078002e00900098
:10402000010878001e007800300798000200370071
:104030001e007800300798003e0090000080fa00d3
:10404000000006000c00fa00000f7800110798002d
:104050002207980034079800450798003001200097
:104060009e0f100036003e001e0078000000400049
:10407000000040000000400000004000ee00400052
:104080002041210000804000100078004900de003f
:10409000614060000004e000290032001e0078004a
:1040a0002e01900000004000000040000000400091
:1040b00080004000a04121000080400002087800fc
:1040c0001e0078001e01900000004000000040002b
:1040d0000000400080004000c041210000804000fe
:1040e000020878001e0078003e019000ce0190008a
:1040f0000000400000004000000040008000400040
:10410000e0412100008040000288be001e007800cf
:10411000000040000000400000004000800040001f
:104120000042210080804000110078000090a00033
:10413000800878001e0078005007980002003700c1
:104140000080eb00500798005e0090000080fa00ad
:10415000000006000400fa000000eb00000f7800e9
:10416000110037001e0078000000400000004000f1
:104170000000400000004000ee004000204121000f
:1041800000804000100078004900de0061406000bf
:104190000004e00003003a0010002000100798001f
:1041a000060037001e0fe800300120009e0f1000af
:1041b000ecff36000000eb00100798001e00900096
:1041c0000080fa00000006000400fa000000eb0086
:1041d000000f78000000eb00100798001100370076
:1041e0001e00900000004000000040000000400061
:1041f00000004000ee00400020412100008040000f
:10420000100078004900de00614060000004e0001a
:10421000010032001e0fe8001e0090000000e800c0
:10422000100798001e009000f30f5000ecff3600be
:104230001e0078000080fa00000006000400fa006a
:10424000004f7800f0c0b3009e4f10000a003e00ff
:104250001e04e000080032001e80fb008000e90020
:10426000002129006140780041f407001e80fb0016
:1042700010079800020037000080eb00100798003c
:104280001e0090000080fa00000006000400fa0002
:10429000004f780010c1b3009e4f10000a003e008e
:1042a0001e04e000080032001e80fb008000e900d0
:1042b000002229006140780040f407001e80fb00c6
:1042c00010079800020037000080eb0010079800ec
:1042d0001e0090000080fa00000006000200fa00b4
:1042e000004f780020c0b3009e4f100005003e0034
:1042f0001e04e000030032001e407800baf20700fe
:10430000020037001e407800b7f207000080fa0074
:10431000000006000400fa00204798002e4090009c
:104320000004e0000b003d002e4090008080fb0068
:1043300000f02f00808040004f08de0001004000a8
:104340000080d1008040780090cbb30000cf4000c7
:10435000060037002e4090000080fb000000d100d6
:104360008040780090cbb30000cf40001e40780022
:10437000104798001e4090000080fb000080fa006b
:10438000000006000000fa000040eb0078f6b700dd
:1043900000c1b30079f6b70000c1b3007af6b700e8
:1043a00020c0b3007bf6b70010c0b3007cf6b700a6
:1043b0000000eb00f0bb88000000eb0000bc8800b0
:1043c00070c0b30078f6b70078d6bf009bff070037
:1043d00020c1b3007af6b7007ad6bf00abff070062
:1043e00010c0b3007cf6b7007cd6bf00bbff07004f
:1043f0000000eb00fdf307000080fa00000006005b
:104400000200fa00004f7800f1bb8000e067210055
:10441000008040001e487800f0bb80008000e8006b
:10442000f00f200000806000f0bb88000080fa00e0
:10443000000006000200fa0001bc8000e0672100d5
:1044400000804000104f780000bc80008000e80031
:10445000f00f20000080600000bc88001e80fb0080
:104460000080fa00000006000600fa00100798001d
:10447000414798000000eb00000f7800080037006b
:10448000ecff0700804078001e0090000148780093
:104490001e0090000000e800100798001e0fe800c2
:1044a0004e4090000080fb009e0f5000f4ff3e0045
:1044b0000080fa00000006000c00fa000000eb008b
:1044c0002007980068004700b80e0700b0c3b3008b
:1044d0009ef10700104798001e409000004f7800a2
:1044e00001c8b3001e4090000140600010479800d2
:1044f0001e74a1009e40900000c8b30080cf500001
:1045000006003a0026f2070068004700b70e0700d1
:104510000000eb00500798004b0037001e04e0003d
:1045200006003a001ef2070068004700af0e0700c1
:104530000000eb005007980043003700d2f107005d
:10454000204798002e40900000c0e80020479800c7
:10455000ae409000f0c3b30080cf500003003e0097
:104560002e409000e64f500006003e000cf207007f
:10457000680047009d0e07000000eb005007980000
:1045800031003700f1bb800000bc8000808f5000fc
:1045900006003100f1bb800000bc800000805000ac
:1045a0000000e900200798000500370001bc8000ea
:1045b000f0bb800000805000f00fb0002007980092
:1045c0002e4090000080fb000000e8008000780092
:1045d0002e009000808f500016003e002e4090006c
:1045e00087ff07000000eb00300798000700370046
:1045f000a5f10700304798003e40900080ff07007b
:104600003e0090000000e800300798002e40900027
:104610008080fb003e009000808f5000f4ff3e0041
:1046200068004700710e0700100020005007980036
:1046300005003700daf10700680047006b0e07003d
:104640000000eb00500798005e0090000080fa0028
:10465000000006000200fa0001bc8000f0bb8000f0
:10466000808f50000300320010002000000f7800ff
:10467000020037000000eb00000f78001e007800f9
:104680000080fa00000006000400fa0020479800ad
:10469000cd02a9000040eb00004f78000d0037006c
:1046a0002e4090000004e00002003d00cd22a80052
:1046b00001003700cd22a900cd02a80000000000b3
:1046c000cd02a9002e4090000040400020479800f5
:1046d0001e4fe80070c0b3009e4f1000f0ff360080
:1046e0000080fa00000006000200fa000040eb0023
:1046f000004f7800cd02a9000040eb001047980061
:10470000120037001e40780000404000004f780043
:10471000cd02a800a12c20009140780000c8b30071
:1047200000c060000004e000020032001e04a0008f
:1047300002003700e0cfb3001e4f6000cd02a90099
:104740001e4090000040e800104798001e40900076
:10475000e74f5000ebff36001e80fb000080fa00a0
:10476000000006000000fa00a0e48000b1e4800030
:104770000080fa00000006000c00fa0020079800f4
:104780003107980042079800530798004e019000a7
:10479000de0190002e009000be009000800f5100be
:1047a000818f5900070039004e019000de01900012
:1047b0002e009000be009000001f5100019759008c
:1047c0000a0037004e009000de0090002e0190009d
:1047d000be01900002005000838058000081eb0071
:1047e0008081eb00021f4000039748001e00be00be
:1047f0000080fa00000006000000fa0080e480005b
:1048000091e480000080fa00000006000c00fa002d
:104810002007980031079800420798005307980036
:104820004e019000de0190002e009000be0090002e
:10483000800f5100818f5900070039004e01900010
:10484000de0190002e009000be009000001f51007d
:10485000019759000a0037004e009000de009000da
:104860002e019000be01900002005000838058008d
:104870000081eb008081eb00021f4000039748009d
:104880001e00be000080fa00000006000400fa00ce
:10489000008fbe001e00be0080e4880091e4880006
:1048a0000080fa00000006001800fa00881f780057
:1048b000300f98000040eb002047980009003700b7
:1048c0002e4090000084fb005301070080407800d8
:1048d00063004700017478002e4090000040e8001b
:1048e000204798002e409000ef4f5000f4ff360014
:1048f0006300470001012000e2000700200f98003c
:10490000130037000040eb002047980009003700f3
:104910002e4090000084fb003f010700804078009b
:1049200063004700017478002e4090000040e800ca
:10493000204798002e409000e44f5000f4ff3600ce
:104940006300470051002000ce000700200f9800b0
:104950002e089000e10f4000eaff3200ce50900098
:104960003e08900001487800de5090003e0890001c
:104970001140980010532000000f78001e007800ae
:10498000804078003e089000214098001e0078008a
:104990004800de00804078003e08900031409800da
:1049a00010002000000f78001e0078008040780082
:1049b0003e089000414098001e0078004800de004c
:1049c000804078003e089000514098003010200050
:1049d000000f78001e007800804078003e089000ac
:1049e000614098001e0078004800de00804078009a
:1049f0003e089000714098004f0478000080fa0053
:104a0000000006000800fa0020079800614798009f
:104a100010002000000f78000000eb001007980045
:104a2000070037009e0078002e0090000088b90033
:104a3000000f78001e0090000000e80010079800aa
:104a40006e4090008080fb001e009000808f500020
:104a5000f4ff3e001e0078000080fa00000006000f
:104a60000c00fa00204f980030002000400798000a
:104a700040012000300798006000200020079800c7
:104a80000000eb00100798004e009000e10f50006e
:104a90000a003a002e4890008080fb002e00900013
:104aa000010050008000e9003e0090000088b9003d
:104ab0000000e80010079800350037004e00900015
:104ac000e10f5000320036002e4890008080fb003d
:104ad0002e009000808f50000e003a00be00900023
:104ae0004e009000808050003e0090004e019000eb
:104af000811f7800110009000280d80001017800b0
:104b0000cf007800008050000000e80010079800f7
:104b10001f0037002e4890000080fb000000e800d6
:104b2000800078002e009000808f50001800310027
:104b30002e009000804078002e48900000c0500069
:104b40008040e9004e009000aeff0700000f7800a3
:104b5000be0090001e0078000088b90000017800b7
:104b6000ce0090003e009000008050000000410008
:104b70000000e900100798004e0090000001e900d5
:104b80001e009000110009000280d8001007980054
:104b90001e0090000080fa00000006001000fa00dd
:104ba00060479800410798005207980063079800f3
:104bb00030002000100798005e009000e60f5000c3
:104bc000050036000080eb00200798002e009000c2
:104bd00070079800280037005e009000a0ff0700d3
:104be000000f78006e409000e24f50000f003a0036
:104bf0006e009000e30f50001b003e006e0090001e
:104c00008000e9001e0078000088b900800078006c
:104c10004e009000008040000000e800200798004f
:104c20002e00900070079800130037006e0090006f
:104c3000f40f50000c003e009e0090001e00780013
:104c40000088b900800078004e009000808040000d
:104c50006e00900000804000200798002e00900019
:104c600070079800040037000080eb0020079800d0
:104c70002e009000700798007e0090000080fa00df
:104c8000000006000e00fa00500798006107980027
:104c90000080eb00300798000000eb001007980040
:104ca0001f0037009e0090005e00900000804000d2
:104cb000104078008080fb003e00900001006800fa
:104cc000300798000000eb00000f78000e0037005e
:104cd0003e00900061006000200798003e009000b8
:104ce0000000d100300798002e009000e10f500026
:104cf00004003a003e00900011002a000100680004
:104d0000300798001e0fe800700020009e0f100072
:104d1000efff36001e0090000000e800100798002a
:104d20009e0090006e009000808f5000ddff3900e3
:104d30003e009000400798004e0090000080fa006e
:104d4000000006000600fa0040479800514798000e
:104d500010002000000f78000000eb001007980002
:104d6000080037004e4090008080fb001e00780055
:104d70000180b900000f78001e0090000000e800dc
:104d8000100798005e4090008080fb001e0090009d
:104d9000808f5000f3ff3e001e0078000080fa0074
:104da000000006000600fa00200798002e00900080
:104db0006f406000204798002e4090000080fb006c
:104dc000000f78002e0090004800de006f40600069
:104dd000204798001e0078000000400000004000be
:104de0000000400000004000000f78002e409000be
:104df0000080fb001e0f70002e009000ef0060008e
:104e00001e0078000180b900000f78001e007800b5
:104e10000080fa00000006000400fa00601980001b
:104e2000000f7800e0ff2f00601988000000eb0001
:104e3000001988000000eb001019880020002000f5
:104e4000201988000000eb00401988000000eb00ea
:104e50008019880085a0a90095a0a90021e3a800d9
:104e60002023a800c0122000eeee07002023a90096
:104e700020c3bf00614060000004e000fcff32007e
:104e80002003a90000188000100798001e00780079
:104e9000601988001e0090000080fa0000000600e3
:104ea0000000fa0000000000000000000080fa008e
:104eb000000006000000fa00c842a900cc42a80089
:104ec000cc62a800f6ff0700000000000000000010
:104ed000cc42a900f2ff0700cc62a900f0ff070056
:104ee0000080fa00000006000000fa00c842a90095
:104ef000cc42a900cc62a800e9ff0700cc42a80080
:104f0000e7ff0700cc42a900cc62a9000080fa00ac
:104f1000000006000000fa00c842a900cc62a90007
:104f2000dfff0700cc42a900cc62a800dcff07002d
:104f3000cc62a900cc42a9000080fa000000060063
:104f40000000fa00c842a900cc42a800cc62a80028
:104f5000d3ff0700cc62a900cc42a900d0ff070014
:104f60000080fa00000006000200fa00c842a80013
:104f7000cbff0700cc62a800c9ff0700cac2bf0070
:104f80000080fb004200de0061406000004f7800be
:104f9000c3ff0700cc62a900c842a9001e80fb0025
:104fa0000080fa00000006000400fa002047980084
:104fb000c842a900baff070080c0b300104798009c
:104fc0001300370000c8b300ae40900000cf60006f
:104fd00000c8b3009e4f100002003a00cc42a80067
:104fe00001003700cc42a900adff0700cc62a80049
:104ff000abff0700cc62a9002e40900000404000ab
:10500000204798001e4090000040e900104798009b
:105010001e4090000004e000eaff3a000080fa0021
:10502000000006000400fa000040eb002047980052
:10503000c842a80080c0b30010479800160037008f
:10504000cc62a80096ff07002e4090000040400070
:1050500020479800cac2bf000080fb004200de006b
:1050600061406000004f780010c0b3009e4f1000f8
:1050700003003a002e4090000004a0002047980052
:1050800087ff0700cc62a90085ff07001e40900043
:105090000040e900104798001e4090000004e00026
:1050a000e7ff3a002e4090000080fb000080fa00ed
:1050b000000006000200fa00004f780023c2bf0083
:1050c000624060000004e000fcff3a001e80fb002c
:1050d000201188000080fa00000006000200fa009b
:1050e00030118000004f78001e80fb000080fa0025
:1050f000000006000000fa0022c2bf00624060000b
:105100000004e000010032002222a90022c2bf00f8
:10511000644060000004e00001003200efff07007f
:105120000080fa00000006000400fa00000f78007a
:10513000214798005fff070000cab3009aff0700ed
:1051400089ff07001e40900097ff070086ff0700b9
:105150001e40780094ff070083ff07002e40900058
:1051600091ff070080ff07005fff07000080fa0043
:10517000000006000800fa001007980021079800b8
:10518000320798004bff070000cab30086ff0700f4
:1051900075ff07003e40900083ff070072ff070085
:1051a0002e40900080ff07006fff07000040eb00db
:1051b000104798000d0037002e009000104f780027
:1051c0002e0090000000e800200798001e407800a4
:1051d00075ff070064ff07005000200011ee070074
:1051e0001e4090000040e800104798001e409000cc
:1051f0008080fb003e009000808f5000eeff390061
:1052000039ff0700be009000001920000088b90097
:1052100004ee07000080fa00000006000400fa0017
:105220001007980023ff070000cab3005eff0700c5
:105230004dff07003e4090005bff07004aff07005c
:105240002e40900058ff070047ff070019ff070096
:1052500010cab30054ff070043ff070071ff0700a7
:10526000004f780036ff07001fff07001e80fb007d
:105270000080fa00000006000800fa0010079800fd
:1052800021079800320798000aff070000cab30000
:1052900045ff070034ff07003e40900042ff070033
:1052a00031ff07002e4090003fff07002eff070050
:1052b00000ff070010cab3003bff07002aff0700ea
:1052c0000040eb00004f78000c00370055ff07004e
:1052d000104798000fff07002e0090009e4090009e
:1052e000014878002e0090000000e8002007980098
:1052f00050002000cbed07001e4fe8001e80fb0091
:10530000be0090008100e900810f5000efff3900de
:1053100044ff0700104798002e0090009e40900028
:105320000148780006ff0700effe07000080fa0042
:10533000000006000400fa00100798001e0090000c
:10534000000040000000400000004000000040005d
:105350000000400000004000000f78001e007800b0
:105360000080fa00000006000c00fa0040079800d8
:10537000ce009000f01e2000808f50001c003e00e8
:105380004e0090004500de00100798004e0090008f
:105390007f0f60001e0090000000400000004000f1
:1053a00000004000000040000000400000004000fd
:1053b0008000780000c0270000804000200798008f
:1053c000ae0090001e007800000040000080400009
:1053d00020079800e6004700220020002e009000e1
:1053e000a5ff07003e00900050079800020037001c
:1053f0000080eb00500798005e0090000080fa00eb
:10540000000006001000fa0050079800610798009d
:10541000de009000f01e2000808f50002e003e0025
:105420005e0090004500de00100798005e009000ce
:105430007f0f60001e009000000040000000400050
:10544000000040000000400000004000000040005c
:105450008000780000c027000080400020079800ee
:10546000ae0090001e007800000040000080400068
:10547000200798000000eb00000f78001e01780064
:105480006e009000804078006600470000004100f8
:10549000014878001e0fe8001e0178006e009000a1
:1054a0004800de00804078006600470000004100b0
:1054b000014878001e0fe800e600470022002000a7
:1054c0002e0090002bff07000000000010002000bd
:1054d00070079800020037000000eb00700798008a
:1054e0007e0090000080fa00000006005000fa00e4
:1054f000302798004127980052279800632798008a
:10550000be209000001f2000808f500004003e004d
:10551000ce20900000042000808f50000300360051
:105520000000eb00702798002a0037003e20900012
:1055300080ff070010079800e400470002042000e5
:105540001e0090004cff0700010420004e20900038
:10555000808050006e209000808f50000300360045
:105560006e209000000f7800030037000104200037
:105570004e209000008f5000ce2090006400470025
:1055800001004000de2090001e017800fdeb0700c6
:105590006400470001042000bafd0700202798009e
:1055a000ae2090003e20900096ff07009e009000e5
:1055b0004e20900000804000100798001e017800e7
:1055c000de2090001e009000eafe07001e0078001a
:1055d000702798007e2090000080fa0000000600ee
:1055e0005200fa004027980051279800622798003f
:1055f00073279800ce209000001f2000808f50005d
:1056000004003e00de20900000042000808f500047
:10561000030036000000eb00002f98002f00370039
:105620004e20900043ff070010079800e800470055
:10563000020420001e0090000fff070068004700d2
:10564000010420008ffd0700200798004e209000e5
:1056500045ff070030079800ae0090003e00900024
:10566000808f50001b003a003e009000e10f400088
:1056700018003200010420005e209000808050005d
:105680007e209000808f5000030036007e20900026
:10569000000f780003003700010420005e20900016
:1056a000008f5000de20900068004700010040009d
:1056b000ee20900081017800800078001e017800c3
:1056c00003007800afeb07001e007800002f980061
:1056d000020037000000eb00002f98000e28900019
:1056e0000080fa00000006000000fa0051020700e6
:1056f000650a0700440b07000040eb00beefb7004f
:105700000040eb00bfefb70010c0b300c2efb7001e
:1057100040012000007e880040c6b300c4efb700ff
:105720000000eb00307e88000000eb00407e880027
:1057300010c0b300caefb7000040eb00cbefb700da
:105740000040eb007fefb7000060fe000080fa0031
:10575000000006000a00fa002007980031079800b0
:10576000a07e800010079800be0090001e009000f0
:10577000808f500006003a001e009000e10f4000ac
:10578000030032000000eb004007980032003700b1
:105790003e009000cdf90700e10f40000c00320000
:1057a000ae00900080c0b30080487800917e8000f9
:1057b0002e00900011009800be0090002e00900076
:1057c00021009800100020004007980022003700b8
:1057d0003e009000e10f40000c003a00ae00900047
:1057e00080c0b30080487800917e80002e00900039
:1057f00011009800ae0090000080eb00a00098001f
:105800001000200040079800130037008e00780039
:105810003e009000e40107000004e0000c003200ac
:10582000ae00900080c0b30080487800917e800078
:105830002e009000110098009e0078002e0090002d
:105840002100980010002000400798000200370057
:105850000000eb00400798004e0090000080fa0026
:10586000000006002000fa00500f9800610f980019
:105870000040eb00004f78006c004700de0890000d
:10588000b4ff07000004e000470032006c0047004e
:1058900011c6b300c3f307000004e00003003a00a0
:1058a0000000eb00700f9800410037001e81fb00e4
:1058b0006e089000804078000e00e80001717800ca
:1058c0001e4fe8001e81fb006e0890004800de00bd
:1058d000804078000e00e800017178001e4fe8005b
:1058e0001e81fb00ae5890000e00e80001717800a8
:1058f0001e4fe8001e81fb00be5890000e00e8001d
:10590000017178001e4fe8001e81fb0041fd200060
:10591000914078000e00e800017178001e4fe80009
:105920001e81fb0051fd2000914078000e00e80030
:10593000017178001e4fe8001e81fb008e00e80018
:10594000c0c3b30000f178001e4fe8001e81fb00c9
:10595000becfbf000040e800beefb700e1fb200073
:10596000914078000e00e800017178001e4fe800b9
:105970000e00e8009e40780087f407001e40780083
:1059800080efb7001e81fb000e00e80003f9200045
:105990008000780003007800faea07001000200079
:1059a000700f9800020037000000eb00700f9800a5
:1059b0007e0890000080fa00000006000400fa0053
:1059c000000f780021479800ae4090001e0078003c
:1059d00071f4070001f82000914078002e409000fb
:1059e00000c0400080efb7002e4090000081fb0017
:1059f0001e00780083f92000800078000300780002
:105a0000e0ea07000080fa00000006000200fa0049
:105a10008df40700004f7800907c8000e10f40007b
:105a20000300320021c0b30000f82000ae010700df
:105a30001e80fb000080fa00000006000400fa004f
:105a400021f5200040f4200040f80700004f7800c6
:105a50007fcfbf000004e0000b003a0080c0b3001d
:105a60009e4f1000080036001e40780042efb7003d
:105a700010c0b3007fefb7000060fe0010002000f0
:105a800010079800020037000000eb001007980094
:105a90001e0090000080fa00000006001400fa00ca
:105aa00058cfbf000004e00017003200a07a800049
:105ab000000f98000e80e8008e08900025ff070078
:105ac0000004e000100032000e80e80011c6b300b0
:105ad00034f3070058cfbf000040e90058efb7008b
:105ae00042cfbf001047980020f520009e40900054
:105af00029f4070054f40700004f78001e80fb00d3
:105b0000100f9800020037000000eb00100f980003
:105b10001e0890000080fa00000006000800fa004d
:105b2000a07a8000000f7800407a8000100798006b
:105b3000a07e8000200798002e0090000000e0006a
:105b400003003a000000eb003007980033003700f4
:105b50009e0090002e009000808f500005003600bf
:105b60001e009000ae00900001005000e30f5000b6
:105b700009003e009e0090002e009000808f500093
:105b8000080031002e0090009e009000010050009f
:105b9000e30f5000030036000000eb0030079800d0
:105ba0001e0037001e007800e10f40000b0032009d
:105bb0009e0078002e009000808f50000700360075
:105bc0009e0090002e009000808f50000300360051
:105bd0000000eb0030079800100037001e0078002e
:105be000e10f40000b0032009e0078002e00900074
:105bf000808f5000070031009e0090002e00900022
:105c0000808f5000030031000000eb003007980047
:105c10000200370010002000300798003e0090007e
:105c20000080fa00000006001400fa00a07e800048
:105c300040079800607f80004800de0063406000fd
:105c4000004f78007c0207007cff07000004e000a2
:105c5000d0003200a07a800070079800b07a8000ef
:105c6000000f9800407a80005007980059cfbf007d
:105c7000404798005e009000e10f400003003200b2
:105c80000e089000e10f400005003a000040eb00d4
:105c90007fefb7000000eb00100f9800bf00370047
:105ca0004e0090000000e000090032008e089000d5
:105cb0004e009000808f500005003a000040eb003d
:105cc0007fefb7000000eb00100f9800b300370023
:105cd0004e0090000000e00009003a008e0890009d
:105ce0004e009000808f500005003a000040eb000d
:105cf0007fefb7000000eb00100f9800a7003700ff
:105d0000fe0090004e009000808f50002e003a0060
:105d10007e009000e10f40002b0032006c00470035
:105d2000800178004e4190008e0890007e00900027
:105d3000a6010700100798001e009000e10f400028
:105d40000a0032004e4890000080fb0061006000b5
:105d50000004e000050032000040eb007fefb700d8
:105d60000000eb00100f98008c00370011c0b3004a
:105d700020f42000dc000700907a8000634060007f
:105d8000504798005e4090000004e00009003a008f
:105d900042cfbf006840500042efb70042cfbf0083
:105da000604798006e4090000080fb00100f980044
:105db0007a0037000040eb007fefb7000000eb00f7
:105dc000100f9800750037007e009000e10f400032
:105dd0004f003a00907a800063406000504798007e
:105de0005e4090000004e00044003a004bff0700d2
:105df0000004e000190032006c00470080017800c8
:105e00004e4190008e0890007e0090006f010700c8
:105e1000100798001e009000e10f40000b003200b8
:105e20004e4890000080fb004200de0061006000f0
:105e30000004e000050032000040eb007fefb700f7
:105e40000000eb00100f98005400370013ff07000c
:105e500041c0b30020f42000a30007006c004700fd
:105e6000800178004e4190008e0890007e009000e6
:105e700056010700100798001e009000e10f400037
:105e80000a0032004e4890000080fb006100600074
:105e90000004e000050032000040eb007fefb70097
:105ea0000000eb00100f98003c00370011c0b30059
:105eb00020f420008c00070042cfbf006840500053
:105ec00042efb70042cfbf00604798006e4090009d
