:020000040000fa
:080000000002040000000000f2
:020000040000fa
:10040000ef892100007f2200000188000000000029
:100410000c000700e0222600010020001100070068
:10042000000020000000e000020032000000020096
:1004300000000000645b0200000000000040da00e1
:100440000000fe004440a900000020000000e00081
:100450000300320000002000a00188004440a800f2
:100460000000060091018800800078000000eb0089
:1004700015003700e280400032a0b4009101ba00bc
:10048000e280400032a0b4009102ba00e280400055
:1004900032a0b4000002eb00472bde00f507b200eb
:1004a000602ce10004003a000059eb008301e900f0
:1004b000fdff3e00040037006128e100010032002a
:1004c0000082eb00040007001101ba000200e00006
:1004d000e8ff3a00000006003159ba008301e90044
:1004e0000c0032002159ba008301e90008003200f3
:1004f0000400e00003003a00e280400032a0b400b3
:10050000f5ff370011d9ba008301e900faff3a007c
:100510008100e800e180400032a0b4000000060045
:1005200000000000000000000000000000000000cb
:1005300000000000000000000000000000000000bb
:1005400000000000000000000000000000000000ab
:10055000000000000000000000000000000000009b
:10056000000000000000000000000000000000008b
:10057000000178001001e200030035001061a800be
:10058000000028001021b7003008800041088000da
:100590000200e000010032000089be0000000600f9
:1005a000889fbe008004780040b580000000e00015
:1005b00003003a00100007000000e0000a003500c8
:1005c00040b580000900e00002003a000004780015
:1005d000060037000004780009004000060007000c
:1005e0000000e00001003d000084eb0008007800fe
:1005f0004f04be0000000600800078000000e0000c
:1006000004003a00a06a210040b58800010178008a
:10061000060037000081eb00e0892100808f500048
:1006200002003e0041b588000001eb0002007800a6
:1006300000000600020ab900001bb9000200b80061
:10064000810042008100430000000600889fbe0038
:100650008a9fbe00010578000100e000040035001b
:1006600008003c000000e0002000320005003700d8
:1006700060001000e080180002003b0001f02c0038
:100680001a0037000004be006011b8006b0920009a
:100690000982cf00020039000882cf000441b00077
:1006a000694252000e00320008003b008281710056
:1006b000610164008904d1000884d3008b05e8003f
:1006c0000442e800f9ff3a0005003700080444003e
:1006d00089844c008b05e9000442e900fbff3a00e5
:1006e0000b0107000af0a70001f0a0004f05be00b3
:1006f0004f04be000000060003f0a200889fbe0069
:100700008a9fbe008c1f7800270107002e0133004e
:100710006450e1004f0032006420e10052003200da
:1007200003826c0007003b000905d0000306d000df
:10073000820f54000c065d000200390002003200f6
:1007400089017800030678008582550004003d0089
:100750000003fd008103fd008502ea008b85420055
:10076000840f720002003b0060001000e08018005f
:100770006011b8000005eb007a28e1000a0039009a
:1007800006007800c75ddd00f707b20087807500be
:100790002d003700828171000a0178006105600038
:1007a0008180d1000080d3008502e900f9ff3b0081
:1007b000060440008784480002003b0060041400e7
:1007c000e0841c000988a300070032008a817100c0
:1007d00082817100610164008904d1000884d30022
:1007e0008b05e800170037000978a30013003a00d2
:1007f0000b00e000130034008b05e90008044400fe
:1008000089844c000a4474000978a3000d003a0062
:100810000b00e000070034008b05e90008044400e9
:1008200089844c0001003a000b0020000978a300e5
:10083000f7ff32000001eb000200370082817100f7
:100840000a017800b20007000cf0a70001f0a00038
:10085000e60037006420e10002003a00838f6c005c
:10086000e60033000801be000200be00df003700d2
:10087000889fbe008a9fbe008c1f7800ca000700b8
:10088000d100330003866c006450e1002e0032007a
:100890006420e100330032006150e1002f0032009b
:1008a0006120e1003100320085855500eb07b00082
:1008b0000900200008042000050037000804440057
:1008c00089844c000a0031000603430087834b00f3
:1008d0000001530081815b00f8ff33000203be007a
:1008e0000800a0000804440089844c00f6ff390089
:1008f000c639dd00830173000100320013002000bf
:100900008904d1000884d3000998a30005003200af
:100910000800a7000300a0008904d1000884d300c8
:100920008b05e8008904d1000884d3000001eb00a6
:100930000281d2007600070001f0a1000cf0a700b0
:1009400001f0a000a90037006420e100ab003200f4
:100950000801be000200be00f7ff37006120e10081
:10096000a60032006000b800f3ff3700000020004e
:1009700001f82700f0ff3700f4ff2f00a200370036
:1009800014002000a0003700889fbe008a9fbe0090
:100990008c1f7800840007008b00330003866c00f6
:1009a0006450e100240032006420e100270032009e
:1009b0006150e100220032006120e100210032009c
:1009c0008b854200eb07b1000134b800003ab80053
:1009d0000804420089844a00013ab8000030b80097
:1009e0008880400009014a000400330000004000f4
:1009f00081804800020149008b05e900c909dd003a
:100a0000830170000100320013002000c814de00d2
:100a10004814dd004709de001200b200c808de00fd
:100a2000088470003a00070001f0a1000cf0a70054
:100a300001f0a0006d0037006120e1006f0032007e
:100a40000801be000200be00f7ff37006150e10060
:100a5000fcff3a00690037000001be008500070076
:100a60000470a70003f0a10003f8a30013003a00ec
:100a70006509b10010003200090035006928e10065
:100a800002003500010028000000050000004000c1
:100a9000818048008502e900fcff3a000000060062
:100aa000f88f4200050035008100d1000080d3009e
:100ab0008502e800fcff3a00000006008000eb0021
:100ac000000005006022b800060220000000d000ef
:100ad0008180d2000482d2008582d2000000a00072
:100ae0000202520083825a000300310002024200d7
:100af00083824a000000a1000603e900f3ff3a00e8
:100b000000000600efff07000400be000000060022
:100b100081002000618055000b003d000b0020008b
:100b200061fe2f000100e1001d0034008281710090
:100b3000610164008904d1000884d3000000e8004a
:100b4000faff3a00710020006100640003007000a9
:100b5000020060000900320061044400e0844c009f
:100b60000988a500050032008b05e8006808e1004f
:100b700002003a008904d1000884d300f20f20005b
:100b80000258e10005003d00c75ddd00f907b20035
:100b90008980750008007800000006000bf8270027
:100ba0008b007800000005000004be003100070043
:100bb0000003be000405be000200be002d000700b9
:100bc000844f7500000006000200be006450e10082
:100bd000050036006420e100020036000968a30029
:100be00001003a000800be000160a0004f06780036
:100bf0004f05be004f04be0000000600f0ff2f00ae
:100c0000f1ff2700f9ff3700889fbe008a9fbe00d2
:100c1000841f7800e4ff07004f00780011003300c4
:100c2000f0ff2f00838f6c0006003b000405650079
:100c30000a00a7000800370009f0a60010002000f5
:100c400008003700820f5400838f5c0003003900d6
:100c50001000200001003e000000200009f0a70065
:100c60000000ea004f05be004f04be000000e00097
:100c700000000600c70ade00f107b200f50fb2005f
:100c800008003200e1cf4200020032000170a000f3
:100c900024000500810f70000100320004080500e7
:100ca00044000500810f700002003a0014000500a6
:100cb0008502e9000000400081c04800fcff3b00c5
:100cc0000170a000240005000100200020b588006c
:100cd00031b5880011c0b300206a210001487800b6
:100ce00000000600226a21001204e00006003a001b
:100cf000100020000100200020b5880031b58800d8
:100d000010c0b30000497800d2e62400631c240020
:100d100020b5800031b5800046fe07000001be000e
:100d2000900323000100200002004000838048005f
:100d300020b5880031b588004088de00cf80de0015
:100d400000f0a100000006000400fa00e0bf9f00d0
:100d5000e4815700812978000002eb000f00370082
:100d60006fb89700904078007fb8970010407800e7
:100d70000402e80080cf5000040032008180fb00b4
:100d80000080fb0000805000070037006fb897001c
:100d90000000e800e0bf9f009309e800820f5200c6
:100da000efff3a000000eb000080fa0000000600b0
:100db0008001eb000200370061f079008301e80058
:100dc000828f5100fcff3a0000000600889fbe00a1
:100dd0008a9fbe008c9fbe0000017800a16921009f
:100de0001100e0000b003a00e0692100d0b4880057
:100df000b0b48800f1b48800c1b4880021409000ec
:100e00000004a000a0409800614090000004a000f1
:100e1000e0409800e7004100c208de00c20cdd009f
:100e2000c3b48000ad6a2100e08921000d055000a7
:100e300022002000811f7800110009000205d8005f
:100e400000067800cf007800c308dd00e48540008c
:100e5000b5b480008000eb00a76a2100a6692100dc
:100e60000100370080017800234090000008a300b3
:100e7000020032000a00370094097800130278005b
:100e8000244090000008a300fbff320009814100cc
:100e9000820f520002003900830f510043003100dd
:100ea00013007800830f5000eeff3e00870f5000c4
:100eb00002003900860f5000eaff3900858f51008b
:100ec0004b003a00860f500049003a008100e800cc
:100ed000e18f5000e3ff36008c8f54000400360091
:100ee0008a8f5400020031000b0478001200370092
:100ef000614ab8006151b900b0ff2f000100200025
:100f00000200500083805800800f5200818f5a00e9
:100f10000200350009047800070037000d805400f6
:100f2000128a210002004000110009000a80d80046
:100f30000a80b900000478000800780098fd0700d6
:100f400080017800e10f400029003200b2b4800037
:100f50000009780064004100a2409000808f510099
:100f6000020032000104a000010037000104a100ca
:100f70002141980088804100e48050008109780078
:100f8000b1b48800a2692100820878002140900055
:100f90000004a000a0409800234090000004a1009d
:100fa000a041980082017800a9ff3700c2b48800f0
:100fb000820f5200080036001200780041692100bb
:100fc000a24290008548780090b488000409780017
:100fd0000040eb00204198008209780023409000f7
:100fe0000004a000a0419800648041000100370087
:100ff0000000eb004f06be004f05be004f04be00d0
:101000000000060064005000c0b48800a0409000ba
:101010000104a1002140980000000600889fbe0046
:101020008a9fbe0000057800e40150001300100004
:10103000c285de00234090000008a30004003200b7
:10104000c3b48800234090000004a100a041980090
:10105000010078005dff0700000478000000e00058
:10106000170032008a0f50001500320060b8970058
:1010700008005000c284de00898f55000100360050
:10108000890578004259dd008a0078000800780060
:1010900047ff07008a0f5400090031004248dd0075
:1010a000000044008a0f5000050036000a0050007e
:1010b0000000440092b48000a3b480000288be0007
:1010c000080078004f05be004f04be000000060077
:020000040000fa
:020000040001f9
:0457f8009f78000096
:020000040000fa
:020000040001f9
:0457fc007b3d0000f1
:020000040000fa
:100008003e670000866400008c6400009264000073
:10001800986400003e6700003e6700003e670000ed
:100028003e6700003e6700003e670000b6640000bf
:100038003e6700003e6700003e6700003e67000024
:10004800ac4100003e6700003e6700003e670000cc
:100058003e6700003e6700003e6700003e67000004
:100068003e6700003e6700003e6700003e670000f4
:10007800d26400003e6700003e6700003e67000053
:100088003e6700003e6700003e6700003e670000d4
:100098003e6700003e6700003e6700003e670000c4
:1000a8003e6700003e6700003e6700003e670000b4
:1000b8003e6700003e6700003e6700003e670000a4
:1000c8003e6700003e6700003e6700003e67000094
:1000d8003e6700003e6700003e6700003e67000084
:1000e8003e6700003e6700003e6700003e67000074
:1000f8003e6700003e6700003e6700003e67000064
:100108003e6700003e6700003e6700003e67000053
:100118003e6700003e6700003e6700003e67000043
:100128003e6700003e6700003e6700003e67000033
:100138003e6700003e6700003e6700003e67000023
:100148003e6700003e6700003e6700003e67000013
:100158003e6700003e6700003e6700003e67000003
:100168003e6700003e6700003e6700003e670000f3
:100178003e6700003e6700003e6700003e670000e3
:100188003e6700003e6700003e6700003e670000d3
:100198003e6700003e6700003e6700003e670000c3
:1001a8003e6700003e6700003e6700003e670000b3
:1001b8003e6700003e6700003e6700003e670000a3
:1001c8003e6700003e6700003e6700003e67000093
:1001d8003e6700003e6700003e6700003e67000083
:1001e8003e6700003e6700003e6700003e67000073
:0801f8003e6700003e670000b5
:020000040000fa
:100208003e6700009e640000a4640000aa64000029
:10021800b06400003e6700003e6700003e670000d3
:100228003e6700003e6700003e670000b6640000bd
:100238003e6700003e6700003e6700003e67000022
:10024800ac4100003e6700003e6700003e670000ca
:100258003e6700003e6700003e6700003e67000002
:100268003e6700003e6700003e6700003e670000f2
:10027800d26400003e6700003e6700003e67000051
:100288003e6700003e6700003e6700003e670000d2
:100298003e6700003e6700003e6700003e670000c2
:1002a8003e6700003e6700003e6700003e670000b2
:1002b8003e6700003e6700003e6700003e670000a2
:1002c8003e6700003e6700003e6700003e67000092
:1002d8003e6700003e6700003e6700003e67000082
:1002e8003e6700003e6700003e6700003e67000072
:1002f8003e6700003e6700003e6700003e67000062
:100308003e6700003e6700003e6700003e67000051
:100318003e6700003e6700003e6700003e67000041
:100328003e6700003e6700003e6700003e67000031
:100338003e6700003e6700003e6700003e67000021
:100348003e6700003e6700003e6700003e67000011
:100358003e6700003e6700003e6700003e67000001
:100368003e6700003e6700003e6700003e670000f1
:100378003e6700003e6700003e6700003e670000e1
:100388003e6700003e6700003e6700003e670000d1
:100398003e6700003e6700003e6700003e670000c1
:1003a8003e6700003e6700003e6700003e670000b1
:1003b8003e6700003e6700003e6700003e670000a1
:1003c8003e6700003e6700003e6700003e67000091
:1003d8003e6700003e6700003e6700003e67000081
:1003e8003e6700003e6700003e6700003e67000071
:0803f8003e6700003e670000b3
:020000040000fa
:1010d0000200fa000040eb00004f78000a003700e1
:1010e0009e80fb00800420000088b900610420007d
:1010f0008080400040f5200080804000f0ef2f000d
:10110000910860001e4fe80040c0b3009e4f1000e1
:10111000f3ff36000040eb002cefb7000040eb007f
:101120002fefb7000040eb002eefb7000000eb0000
:10113000907188000000eb00a07188006000b8008a
:10114000b0718800c17188006000b800d07188005b
:10115000e17188000040eb0048eeb7000000eb00b2
:10116000a072880000ccb30054eeb7000000eb0082
:10117000f07188006000b800007288001172880069
:101180006000b8002072880031728800c0c3b300cc
:1011900049eeb7000040eb004aeeb7004c0ea90044
:1011a0004c2ea9004c4ea9004c6ea9004c8ea900f3
:1011b0004caea8004ccea9004ceea9004d4ea800a4
:1011c0001000200070728800500ea800502ea90058
:1011d000504ea8004d6ea8004d0ea8004d2ea80040
:1011e000180ea900182ea900184ea900186ea90003
:1011f000188ea90018aea90018cea90018eea900f3
:101200000000eb00d07088000000eb00e070880068
:101210000000eb00f07088000000eb000071880017
:101220000000eb00107188000000eb0020718800c6
:101230000000eb00307188000040eb0056eeb70074
:101240000000eb00c07288000040eb005aeeb700cf
:101250000040eb005ceeb7000000eb00f07288008d
:101260000000eb00007388006000b8001073880075
:10127000217388006000b8003073880041738800d3
:101280000040eb006aeeb7000000eb0060738800de
:101290000000eb00707388000000eb008073880092
:1012a0000000eb00907388000000eb00a073880042
:1012b0000000eb00b07388000040eb00a8eeb70020
:1012c0000040eb00a9eeb7000040eb00aaeeb7002b
:1012d000a0cab30052eeb7000040eb00004f780008
:1012e000060037009e80fb00c00b2100808040007c
:1012f0000040eb00804878001e4fe80000c4b300b7
:101300009e4f1000f7ff36000040eb00fdf0b700e5
:10131000a2250700a0728000e10f400007003a00fc
:101320000000eb00a072880000ccb30054eeb700c0
:10133000552ea800050007000100370045000700f2
:101340009c0c07000080fa00000006001800fa005c
:10135000660047006b250700004f78000a00370041
:1013600068004700cc2c07008096290020079800d1
:10137000e80047002e0090003f2507006600470068
:1013800060250700004f7800be009000809629007d
:10139000808f5000f2ff3a001e04e000f0ff3200a0
:1013a000700047006a250700c825070061e3200098
:1013b000700047008200200063fe070010079800bd
:1013c00018003700f000470060e320000700090024
:1013d000315878008000b1008100b1000080eb003e
:1013e000907188000000eb00a07188000080eb0085
:1013f000f07188004d0ea8004d2ea8000000eb00f3
:10140000a0728800554ea80000ccb30054eeb7007f
:1014100061e3200070004700820020004afe0700c0
:10142000100798001e0090000000e000e5ff3a0061
:101430000080fa00000006000000fa00b525070051
:10144000ed250700672507000060fe000080fa0018
:10145000000006000000fa00782507008925070033
:101460009a250700d22507000060fe000080fa00e0
:10147000000006001800fa00200f98000040eb0062
:10148000004f78000b0037009e80fb00640047008f
:101490008080400000c0eb00804878009e80fb0008
:1014a0006c004700808040000040eb0080487800de
:1014b0001e4fe80070c0b3009e4f1000f2ff3600d0
:1014c000a072800001202000010060000000e00008
:1014d0000c0032002e089000900090009071800067
:1014e000808f5000070032002e08900010009000fe
:1014f000e10f4000030032000000eb00300f9800c5
:1015000049003700a0728000012020000100600027
:101510000000e000160032002e0890001040780015
:10152000e84f500012003a002e089000a0009000f2
:10153000a0718000808f500003003a00100020004e
:10154000300f9800380037002e08900020009000df
:10155000e10f400003003a0010002000300f980017
:10156000310037000000eb00300f98002e003700ec
:101570002e08900010407800ec4f500028003a00f0
:101580002e08900066004000ec004700820020001a
:10159000edfd07001047980061e320002e08900041
:1015a0006600400082002000e7fd070030479800f9
:1015b0002e08900066004000e400470082002000f2
:1015c000e1fd0700204798000060fe001e409000eb
:1015d0000004e00003003a000000eb00300f980028
:1015e000110037003e4090000004e00003003a0084
:1015f00010002000300f98000b0037002e409000a4
:101600000004e00003003a0010002000300f9800b2
:10161000050037000000eb00300f98000200370093
:101620000000eb00300f98003e0890000080fa00a8
:10163000000006001000fa00204f98000040eb0068
:10164000004f78009e80fb000e80e8008080400004
:1016500030c0b300804878001e4fe8009e80fb0039
:101660000e80e8008080400020c0b30080487800f1
:101670001e4fe8009e80fb000e80e8008080400046
:101680000040eb00804878001e4fe8009e80fb0081
:101690000e80e80000804000ae48900001487800cd
:1016a0001e4fe8001e81fb006c0047008e80e800a2
:1016b0004a2c07006e009000400798009e80fb00b7
:1016c0000e4990000e80e80000804000024878003b
:1016d0001e4fe8009e80fb001e4990000e80e8002f
:1016e00000804000024878001e4fe8000e80e800ad
:1016f0001040780080c0e8000e80e80001487800c3
:101700000e80e8009e407800791607000060fe0019
:10171000a0c3b3001c1607000074a1001047980076
:101720001e409000e64f500004003200ad16070046
:101730000000eb0070079800040037000060fe0016
:10174000121907000080fb00700798007e009000cf
:101750000080fa00000006000400fa00204798000c
:101760000040eb00004f780002003700cb28070054
:101770001e4fe8002e4090009e4f1000fbff3900e6
:101780000080fa00000006000c00fa00881f7800b4
:101790000040eb001047980050c0b300cd14070084
:1017a000204798002e409000e14f40003c0232005c
:1017b000aacebf000004e00039023a008041eb00ed
:1017c0000001eb008040eb002e409000ee1407007b
:1017d0000040eb00fdf0b700b028070056eeb70060
:1017e00056cebf006440500056eeb700d30f210024
:1017f000934178008380fb0062e52000124178006d
:10180000c00b210000804000024878000340e8003f
:10181000fdf0b700a128070058eeb7009f28070089
:1018200059eeb700d30f2100934178008380fb006d
:1018300082e5200012417800c00b210000804000aa
:10184000024878000340e800fdf0b700d30f210004
:10185000934178008380fb0092e5200012417800dc
:10186000c00b210000804000024878000340e800df
:10187000fdf0b700892807005aeeb700d30f21000a
:10188000934178008380fb00a2e52000124178009c
:10189000c00b210000804000024878000340e800af
:1018a000fdf0b700c072800067406000004f780014
:1018b0001e40900063404000104798000060fe000a
:1018c00020c0b3009e4f100046003a0056cebf0025
:1018d000e54f500043003a0080c0b3006aeeb70005
:1018e0006e2807006eeeb7006c2807006feeb70099
:1018f000d30f2100934178008380fb00e2e62000b3
:1019000012417800c00b210000804000024878009e
:101910000340e800fdf0b700d30f210093417800a9
:101920008380fb00f2e6200012417800c00b21000a
:1019300000804000024878000340e800fdf0b70056
:1019400056280700a6eeb70054280700a7eeb700f8
:10195000fdd0bf000081fb0066004700c10b2100e5
:101960009e2b07003e009000200798004b280700a0
:10197000a8eeb70049280700a9eeb700a0e62000ae
:10198000bcfe07000004e00005003a000040eb0048
:10199000aaeeb7000000eb0050079800d001370016
:1019a000ae00900030758000808f500008003a0033
:1019b000a9cebf000004e00005003d0010c0b30048
:1019c000aaeeb7001000200050079800c4013700ad
:1019d0000040eb00aaeeb7000000eb0050079800b3
:1019e000bf01370010c0b3009e4f10000500320049
:1019f00030c0b3009e4f1000020032001e04e00011
:101a00009b013a00c172800000c02000808060000d
:101a100000802000808f500036003a001f28070009
:101a20006ceeb7001d2807006deeb70080c0b30054
:101a30006aeeb700192807006eeeb70017280700f6
:101a40006feeb7001e4090006440400010479800c1
:101a5000d30f2100934178008380fb00c2e6200071
:101a600012417800c00b210000804000024878003d
:101a70000340e800fdf0b700d30f21009341780048
:101a80008380fb00d2e6200012417800c00b2100c9
:101a900000804000024878000340e800fdf0b700f5
:101aa000d30f2100934178008380fb00e2e6200001
:101ab00012417800c00b21000080400002487800ed
:101ac0000340e800fdf0b700d30f210093417800f8
:101ad0008380fb00f2e6200012417800c00b210059
:101ae00000804000024878000340e800fdf0b700a5
:101af0005e003700c172800000c02000808060005e
:101b000000c02000808f50003b003a00e327070010
:101b10006ceeb700e12707006deeb700c0c0b30060
:101b20006aeeb700dd27070070eeb700db2707007d
:101b300071eeb700d927070072eeb700d72707006c
:101b400073eeb700d527070074eeb700d327070060
:101b500075eeb700d127070076eeb700cf27070054
:101b600077eeb7001e4090006a4040001047980092
:101b7000d30f2100934178008380fb00c2e6200050
:101b800012417800c00b210000804000024878001c
:101b90000340e800fdf0b700d30f21009341780027
:101ba0008380fb00d2e6200012417800c00b2100a8
:101bb00000804000024878000340e800fdf0b700d4
:101bc00002e72000fdd0bf000080fb00800078000d
:101bd000c00b210000804000070009003258780047
:101be0008000b1008200b100fdd0bf00684040001d
:101bf000fdf0b7001d003700c072800001c020005a
:101c0000010060000000e0000d003a001e04e0004a
:101c10001600320061e52000914078001e409000df
:101c200000c0500064404000cbfe07000040eb00c5
:101c3000aaeeb7000000eb0050079800280137001b
:101c400061e52000914078001e40900000c05000e7
:101c500064404000c0fe07000040eb00aaeeb70061
:101c60000000eb00500798001d013700c072800093
:101c700001002c00010060000000e000780032004c
:101c8000c072800001042000010060000000e0003c
:101c90001b003a00812707005eeeb7007f27070090
:101ca0005feeb7001e40900000c0e80010479800ab
:101cb000d30f2100934178008380fb00e2e52000f0
:101cc00012417800c00b21000080400002487800db
:101cd0000340e800fdf0b700d30f210093417800e6
:101ce0008380fb00f2e5200012417800c00b210048
:101cf00000804000024878000340e800fdf0b70093
:101d0000c172800000002c0080806000000028006c
:101d1000808f50001e003a0000c8b3005ceeb70090
:101d20005e27070060eeb7005c27070061eeb70092
:101d30001e40900000c0e80010479800d30f21001b
:101d4000934178008380fb0002e620001241780076
:101d5000c00b210000804000024878000340e800ea
:101d6000fdf0b700d30f2100934178008380fb0082
:101d700012e6200012417800c00b210000804000d4
:101d8000024878000340e800fdf0b7004200370049
:101d9000c172800000002c008080600000002c00d8
:101da000808f500023003a0000ccb3005ceeb700f7
:101db0003a27070062eeb7003827070063eeb70046
:101dc0003627070064eeb7003427070065eeb7003a
:101dd0003227070066eeb7003027070067eeb7002e
:101de0002e27070068eeb7002c27070069eeb70022
:101df0001e409000684040001047980022e62000f6
:101e0000fdd0bf000080fb0080007800c00b2100e7
:101e10000080400007000900325878008000b100bf
:101e20008200b100fdd0bf0068404000fdf0b70067
:101e30001900370061e52000914078001e409000b5
:101e400000c050006440400043fe07000040eb002b
:101e5000aaeeb7000000eb0050079800a000370082
:101e600030c0b3009e4f10000b00320061e520002f
:101e7000914078001e40900000c050006440400037
:101e800035fe07000040eb00aaeeb7000000eb00b3
:101e900050079800920037000060fe0056cebf0049
:101ea0008080fb001e4090000080fb0000805000fe
:101eb000e4004000d0022000808f50000b0034006e
:101ec00061e52000914078001e40900000c0500065
:101ed0006440400020fe07000040eb00aaeeb7007f
:101ee0000000eb00500798007d0037000040eb0039
:101ef000204798001b0037002e4090000084fb0014
:101f0000e62607000041780021022000888040007a
:101f100060e520000080400002487800d20f2100d8
:101f2000124178008281fb002e4090000080fb006f
:101f3000210220008080400060e5200000804000f9
:101f400090407800c00b21000080410001487800db
:101f50000240e800fdf0b7002e4090000040e8008d
:101f6000204798002e4090000081fb0056cebf0015
:101f70008080fb001e4090000080fb00008050002d
:101f8000800f5100dcff3500c4260700a6eeb70025
:101f9000c2260700a7eeb700c0260700a8eeb700cc
:101fa000be260700a9eeb7001e04e00009003200bb
:101fb000a0e620002ffd07000004e00005003a0025
:101fc0000040eb00aaeeb7000000eb0050079800bd
:101fd00043003700fdd0bf000081fb0068004700d0
:101fe000c10b2100fd2907004e009000200798003a
:101ff0000060fe00317580002e009000808f500040
:1020000016003a00a9cebf000004e00013003d0016
:10201000c072800001022000010060000000e000aa
:10202000020032005acebf0082fd070010c0b3008c
:10203000aaeeb70061e52000914078001e409000b4
:1020400000c0500056eeb700622807000060fe0096
:102050001000200050079800210037000040eb00de
:10206000aaeeb7000000eb00500798001c003700f4
:1020700061e52000914078001e40900000c05000b3
:1020800064404000b4fd07000040eb00aaeeb7003a
:102090000060fe000000eb005007980010003700c1
:1020a0002e409000e14f40000b003200aacebf004e
:1020b000e14f500008003a008041eb000001eb00c6
:1020c00011c0b30010cfb300771107000000eb0080
:1020d00050079800020037000000eb0050079800fe
:1020e0005e0090004f0478000080fa0000000600b7
:1020f0000a00fa00200798006147980054cebf00fc
:10210000104798002e009000104f78006e4090000d
:102110000044b200204798000040eb00fdf0b700fb
:10212000d20f2100124178008280fb00c00b2100f9
:10213000808040000040eb00804878000240e800ca
:10214000fdf0b700d20f2100124178008280fb0021
:10215000c00b210000804000ee4090000148780054
:102160000240e800fdf0b700d20f210012417800d4
:102170008281fb001e4090009e407000c00b210039
:1021800000804100014878000240e800fdf0b700ff
:10219000d20f2100124178008281fb0048cebf009f
:1021a0000040e80048eeb70081e42000914078004c
:1021b000c00b210000804100014878000240e80087
:1021c000fdf0b7000060fe001e04e0007300320066
:1021d00080c0b3009e4f100031003a00d20f2100a2
:1021e000124178008281fb002e009000a0409000f8
:1021f000c00b210000804100014878000240e80047
:10220000fdf0b700d20f2100124178008281fb005f
:102210002e009000b0409000c00b210000804100d3
:10222000014878000240e800fdf0b700d20f21001d
:10223000124178008281fb002e009000c040900087
:10224000c00b210000804100014878000240e800f6
:10225000fdf0b700d20f2100124178008281fb000f
:102260002e009000d0409000c00b21000080410063
:10227000014878000240e800fdf0b7002e00900011
:1022800020009000e10f400044003a00bdd0bf00a4
:10229000f1cdb30001406000bdf0b7003f00370052
:1022a000c1c0b3009ecf100037003a00d20f21000a
:1022b000124178008281fb002e009000a040900027
:1022c000c00b210000804100014878000240e80076
:1022d000fdf0b700d20f2100124178008281fb008f
:1022e0002e009000b0409000c00b21000080410003
:1022f000014878000240e800fdf0b7002e00900091
:1023000066014000fdd0bf000080fb008000780027
:10231000c00b2100008040000700090032587800ff
:102320008000b1008200b100fdd0bf0068404000d5
:10233000fdf0b7002e00900030019000c001900029
:102340000080eb008080eb00800f5100818f5900ee
:1023500012003a002e00900050019000e001900021
:102360000080eb008080eb00800f5100818f5900ce
:102370000a003a00bdd0bf00f1cdb30001406000bb
:10238000bdf0b700050037000040eb00fdf0b700de
:102390000000eb00400798004f0037001e409000ff
:1023a0000004e000460032002e4090000004e000ef
:1023b00014003a00d30f2100934178008380fb0082
:1023c00022e3200012417800c00b21000080400071
:1023d000024878000340e800fdf0b700d30f210069
:1023e000934178008380fb0032e3200012417800a3
:1023f000c00b210000804000024878000340e80044
:10240000fdf0b7009e40900000c8b30080cf5000a0
:1024100015003a00d30f2100934178008380fb0020
:1024200042e3200012417800c00b210000804000f0
:10243000024878000340e800fdf0b700d30f210008
:10244000934178008380fb0052e320001241780022
:10245000c00b210000804000024878000340e800e3
:10246000fdf0b700160037009e40900000ccb3008e
:1024700080cf50000d003a00fdd0bf000080fb006f
:1024800080007800c00b21000080400061e3200044
:1024900007000900315878008000b100fdd0bf006e
:1024a00068404000fdf0b700050037000040eb0039
:1024b000fdf0b7000000eb00400798000600370071
:1024c000fdd0bf000040e900bcf0b7000060fe0096
:1024d00011002000410798004e0090000080fa0093
:1024e000000006000800fa002007980061479800e5
:1024f000bcd0bf000080fb00000f78009e00e80009
:10250000fdd0bf000080fb00808f50001d003a000e
:102510000000eb001007980010003700d20f2100d8
:10252000124178008281fb002e00900090407800dc
:10253000c00b210000804100014878000240e80003
:10254000fdf0b7002e0090000000e8002007980082
:102550001e0090000000e800100798006e409000f8
:102560008080fb001e009000808f5000ebff3e003b
:10257000fdd0bf000040e900bcf0b7000060fe00e5
:10258000020037000040eb00fdf0b7000080fa00c9
:10259000000006000a00fa00fdd0bf00004f7800de
:1025a000bcd0bf00104798009e80fb001e409000ea
:1025b0000080fb000000e800808f50000500320022
:1025c0000040eb00fdf0b7000000eb004007980072
:1025d0002a00370064004700d22607001e40900002
:1025e0000080fb000000e800000178006600470062
:1025f000c10b2100792807003e00900010079800c9
:102600000e80e80021c0b300b6ff0700fdd0bf0078
:10261000004f7800d10f210091407800c00b2100bd
:10262000b3120700a0c3b300571207000074a10043
:10263000104798001e4090009e4f50000600320048
:10264000e812070064004700c62607000000eb0000
:1026500040079800090037000060fe006400470052
:10266000c0260700530607000040eb00fdf0b7004e
:10267000461507000080fb00400798004e009000c0
:102680000080fa00000006001c00fa000040eb0089
:10269000004f7800c1e520009140780000c8b300e9
:1026a00080cf50000a003a008e80e800e0ff2f0043
:1026b00091086000f17280000e80e800110098001f
:1026c000017380000e80e800210098000c003700a4
:1026d0000e80e8001000a000f17280000e80e8007b
:1026e0001100980021e620000e80e80066004000fe
:1026f00007000900315878008000b1008100b10066
:102700001e80fb00210220008080400060e5200048
:1027100000804000904078000e80e80061489800fa
:102720001e4fe8001e80fb00210220008080400038
:1027300060e5200000804000904078000e80e800b6
:10274000714898001e4fe8000060fe000e80e8000f
:10275000700090004f00de008e81e8000080fb00da
:10276000610060004e01dd00b3089000f0ff2b0017
:102770000080600002007000b0099800a8cebf0081
:1027800080240700804078000e80e80041509800c7
:102790000e80e800af0807000040eb00aaeeb7008b
:1027a0000060fe000080fa00000006000200fa004f
:1027b000000f780021e32000914078001e0078008f
:1027c000014878001e0fe80031e3200091407800b6
:1027d0001e007800014878001e0fe80041e3200049
:1027e000914078001e007800014878001e0fe80034
:1027f00051e32000914078001e00780001487800e5
:102800001e0fe8000080fa00000006003600fa0003
:102810000040eb00504798000040eb004047980014
:102820005e4090000080fb0021022000808040007c
:1028300060e520000080400090407800414f980003
:102840005e4090000040e800504798009171800081
:102850006e00470011009800ee00470080c0b300f2
:102860008048780001e62000914078006e00470023
:102870004140980011e62000914078006e0047002a
:10288000514098004e4890000080fb006101b90063
:10289000e0ff2f00f1ff2f0002014000838148007c
:1028a000121f9800231f98008003200001002000c1
:1028b0001e199000ae199000800f5100818f5900b1
:1028c00021053e001e189000ae1890000060010027
:1028d0008f043700100537001b0537001a05370035
:1028e000190537001805370017053700160537009a
:1028f000dc043700140537001305370012053700d4
:1029000011053700100537000f0537000e05370099
:102910000d0537000c0537000b0537000a05370099
:102920000905370008053700070537000605370099
:102930000505370004053700030537000205370099
:102940000105370000053700ff043700fe0437009b
:10295000fd043700fc043700fb043700fa0437009d
:10296000f9043700f8043700f7043700f60437009d
:10297000f5043700f4043700f3043700f20437009d
:10298000f1043700f00437000a0037005800370020
:10299000cb003700190137008c013700e201370006
:1029a00055023700aa02370022033700840337009c
:1029b000fc0337000040eb00404798004e40900079
:1029c0008080fb007c0047008080400010c3b30083
:1029d000804878004e4090000040e8004047980052
:1029e0005e4090000080fb002102200080804000bb
:1029f00060e520000080400090407800014f980082
:102a00005e4090000040e800504798000e4890005b
:102a1000f04f500011003e000e4890000004e0000e
:102a20000e0032000e489000a8f3b700a8d3bf00f4
:102a3000a42307004e4090008080fb007c004700ec
:102a40008080400010c0b300804878004e40900065
:102a50000040e80040479800090037004e409000d1
:102a60008080fb007c004700808040000040eb003d
:102a7000804878004e4090000040e80040479800b1
:102a80004e4090000080fb00800078007c004700f2
:102a90000100400045ff07004e40900064404000a8
:102aa000404798004e4090008080fb007c0047002b
:102ab000008040008e489000014878004e40900011
:102ac0000040e800404798006e00470031c0b30066
:102ad00087fd07007c004700ce40900081fe070084
:102ae000acfe07000040eb00aaeeb70096043700ea
:102af0005e4090000080fb002102200080804000aa
:102b000060e520000080400010417800324f9800be
:102b10005e4090000040e800504798003e4890001a
:102b2000e14f50002b003a002ccfbf008080fb000b
:102b30000008200001005000e50f5000250034007f
:102b4000c2f22000124178008280fb00c0ea20001f
:102b50008080400010c3b300804878000240e80045
:102b60002cefb7000040eb00204f98001500370015
:102b7000c2f22000124178008281fb005e4090008a
:102b80000080fb00210220008080400060e52000e2
:102b90000080400090407800c0ea200000804100a2
:102ba000014878000240e8002cefb7005e4090003a
:102bb0000040e800504798002e4890000040e80090
:102bc000204f98002e489000e44f5000e8ff360058
:102bd000380037003e489000e14f500035003a0081
:102be0002ccfbf008080fb000008200001005000b7
:102bf000e50f50002f003c0010c0b3002fefb700ce
:102c00000040eb002eefb700e2f220001241780006
:102c10000280fb008080e800e0f22000808040001d
:102c200010c3b300804878000240e8002eefb700e0
:102c30000040eb00204f980016003700e3f2200020
:102c4000934178000382fb005e4090000080fb000f
:102c5000210220008080400060e5200000804000cc
:102c6000104178008480e800e0f2200000804000fd
:102c7000024878000340e8002eefb7005e40900065
:102c80000040e800504798002e4890000040e800bf
:102c9000204f98002e489000e44f5000e7ff360088
:102ca0008041eb000001eb0011c0b300c0c0b300d5
:102cb0007d0e07000040eb00aaeeb70022043700ab
:102cc0000040eb00404798004e4090008080fb00a1
:102cd0007c0047008080400030c3b300804878000b
:102ce0004e4090000040e800404798005e40900051
:102cf0000080fb00210220008080400060e5200071
:102d00000080400090417800734798005e4090003a
:102d10000040e800504798007e409000f24f50007d
:102d200011003e007e4090000004e0000e003200e2
:102d30007e409000aaf3b7007e409000f622070084
:102d40004e4090008080fb007c0047008080400067
:102d500010c0b300804878004e4090000040e8006a
:102d600040479800090037004e4090008080fb00eb
:102d70007c004700808040000040eb0080487800e5
:102d80004e4090000040e800404798004e409000c0
:102d90000080fb00800078007c00470001004000bc
:102da00082fe07004e40900064404000404798007b
:102db0004e4090008080fb007c0047000080400077
:102dc000fe409000014878004e4090000040e8002e
:102dd000404798006e00470031c2b300c4fc0700b2
:102de0007c004700ce409000befd0700e9fd0700d3
:102df0000040eb00aaeeb700d30337005e4090001e
:102e00000080fb00210220008080400060e520005f
:102e10000080400010417800324f98005e409000e2
:102e20000040e800504798003e489000e14f5000b5
:102e30002b003a002ccfbf008080fb000008200050
:102e400001005000e50f500025003400c2f22000c0
:102e5000124178008280fb00c0ea200080804000a0
:102e600030c3b300804878000240e8002cefb70080
:102e70000040eb00204f980015003700c2f2200000
:102e8000124178008281fb005e4090000080fb00d0
:102e9000210220008080400060e52000008040008a
:102ea00090407800c0ea200000804100014878008e
:102eb0000240e8002cefb7005e4090000040e800c0
:102ec000504798002e4890000040e800204f98009e
:102ed0002e489000e44f5000e8ff360038003700dd
:102ee0003e489000e14f500035003a002ccfbf0023
:102ef0008080fb000008200001005000e50f50001a
:102f00002f003c0010c0b3002fefb7000040eb00d3
:102f10002eefb700e2f22000124178000280fb00a1
:102f20008080e800e0f220008080400030c3b300e1
:102f3000804878000240e8002eefb7000040eb0028
:102f4000204f980016003700e3f2200093417800ec
:102f50000382fb005e4090000080fb002102200005
:102f60008080400060e52000008040001041780033
:102f70008480e800e0f220000080400002487800f1
:102f80000340e8002eefb7005e4090000040e800ec
:102f9000504798002e4890000040e800204f9800cd
:102fa0002e489000e44f5000e7ff36008041eb00d0
:102fb0000001eb0011c0b300c0c0b300ba0d0700a0
:102fc0000040eb00aaeeb7005f0337000040eb00c3
:102fd000404798004e4090008080fb007c004700f6
:102fe0008080400050c3b300804878004e4090007d
:102ff0000040e800404798005e4090000080fb00e1
:10300000210220008080400060e520000080400018
:1030100090417800634798005e4090000040e800cf
:10302000504798006e4090000004e0001900320004
:103030006e409000e44f500016003e006e4090003d
:10304000acf3b7006e40900048220700c05d20003e
:103050005a2707000000eb0049120700200020005b
:10306000471207000000eb00451207004e40900099
:103070008080fb007c0047008080400010c0b300cf
:10308000804878004e4090000040e800404798009b
:10309000090037004e4090008080fb007c00470014
:1030a000808040000040eb00804878004e40900057
:1030b0000040e800404798004e4090000080fb0030
:1030c000800078007c00470001004000b7fd070049
:1030d0004e40900064404000404798004e409000b1
:1030e0008080fb007c00470000804000ee409000a4
:1030f000014878004e4090000040e80040479800aa
:103100006e00470031c0b300f9fb07007c004700a8
:10311000ce409000f3fc07001efd07000040eb00ce
:10312000aaeeb700080337005e4090000080fb0065
:10313000210220008080400060e5200000804000e7
:1031400010417800324f98005e4090000040e80047
:10315000504798003e489000e14f50002b003a0045
:103160002ccfbf008080fb00000820000100500031
:10317000e50f500025003400c2f220001241780013
:103180008280fb00c0ea20008080400050c3b30072
:10319000804878000240e8002cefb7000040eb00c8
:1031a000204f980015003700c2f22000124178002d
:1031b0008281fb005e4090000080fb002102200025
:1031c0008080400060e52000008040009040780052
:1031d000c0ea200000804100014878000240e80079
:1031e0002cefb7005e4090000040e8005047980088
:1031f0002e4890000040e800204f98002e48900094
:10320000e44f5000e8ff3600380037003e48900099
:10321000e14f500035003a002ccfbf008080fb000a
:103220000008200001005000e50f50002f003c0076
:1032300010c0b3002fefb7000040eb002eefb70037
:10324000e2f22000124178000280fb008080e8005a
:10325000e0f220008080400050c3b3008048780036
:103260000240e8002eefb7000040eb00204f98002e
:1032700016003700e3f22000934178000382fb0040
:103280005e4090000080fb00210220008080400012
:1032900060e5200000804000104178008480e80054
:1032a000e0f2200000804000024878000340e8007f
:1032b0002eefb7005e4090000040e80050479800b5
:1032c0002e4890000040e800204f98002e489000c3
:1032d000e44f5000e7ff36008041eb000001eb00b7
:1032e00011c0b300c0c0b300ef0c07000040eb00fa
:1032f000aaeeb700940237000040eb004047980068
:103300004e4090008080fb007c00470080804000a1
:1033100070c3b300804878004e4090000040e80041
:103320004047980056cebf000040e900104f98007b
:103330001e489000e84f500016003a001e489000ca
:103340000081fb005e4090000080fb008000780060
:1033500080e720000080400063e3200080007800c8
:103360000300780092f60700ea1d07004e40900027
:103370008080fb007c0047008080400010c0b300cc
:10338000804878004e4090000040e8004047980098
:10339000090037004e4090008080fb007c00470011
:1033a000808040000040eb00804878004e40900054
:1033b0000040e800404798004e4090000080fb002d
:1033c000800078007c00470001004000f7fc070007
:1033d0004e40900064404000404798001e489000d6
:1033e0008081fb005e4090000080fb008000780040
:1033f00080e72000008140004e4090000080fb00ec
:10340000800078007c0047000100400082007800c6
:103410000301780066f60700ce4090001e48900039
:1034200000c04000404798006e00470031c2b30022
:103430002ffb07007c004700ce40900029fc0700ce
:1034400054fc07000040eb00aaeeb7003e02370034
:103450005e4090000080fb00210220008080400040
:1034600060e520000080400090417800334f9800d4
:103470005e4090000040e8005047980056cebf00e4
:103480000040e900104f98003e489000e14f500086
:103490002c003a002ccfbf008080fb0000082000e9
:1034a00001005000ec0f500026003400c2f2200052
:1034b000124178008280fb00c0ea2000808040003a
:1034c00070c3b300804878000240e8002cefb700da
:1034d0000040eb00204f980015003700c2f220009a
:1034e000124178008281fb005e4090000080fb006a
:1034f000210220008080400060e520000080400024
:1035000090407800c0ea2000008041000148780027
:103510000240e8002cefb7005e4090000040e80059
:10352000504798002e4890000040e800204f980037
:10353000ae4890001e48900080cf5000e7ff390051
:10354000390037003e489000e14f500036003a0005
:103550002ccfbf008080fb0000082000010050003d
:10356000ec0f500030003c0010c0b3002fefb7004c
:103570000040eb002eefb700e2f22000124178008d
:103580000280fb008080e800e0f2200080804000a4
:1035900070c3b300804878000240e8002eefb70007
:1035a0000040eb00204f980016003700e3f22000a7
:1035b000934178000382fb005e4090000080fb0096
:1035c000210220008080400060e520000080400053
:1035d000104178008480e800e0f220000080400084
:1035e000024878000340e8002eefb7005e409000ec
:1035f0000040e800504798002e4890000040e80046
:10360000204f9800ae4890001e48900080cf500098
:10361000e6ff39008041eb000001eb0011c0b30070
:10362000c0c0b300200c07000040eb00aaeeb700ba
:10363000c50137000040eb00404798004e40900025
:103640008080fb007c0047008080400090c3b30076
:10365000804878004e4090000040e80040479800c5
:1036600056cebf000040e900104f98001e48900061
:10367000e24f500023003a005e4090000080fb00c3
:10368000210220008080400060e520000080400092
:103690001040780032eeb7005e4090000040e80035
:1036a000504798005e4090000080fb0021022000ff
:1036b0008080400060e520000080400010407800dd
:1036c00033eeb7005e4090000040e800504798009d
:1036d000552ea800c31c07000e1d07004e40900089
:1036e0008080fb007c0047008080400010c0b30059
:1036f000804878004e4090000040e8004047980025
:10370000090037004e4090008080fb007c0047009d
:10371000808040000040eb00804878004e409000e0
:103720000040e800404798004e4090000080fb00b9
:10373000800078007c004700010040001bfc07006f
:103740004e40900064404000404798001e48900062
:103750008081fb005e4090000080fb0080007800cc
:1037600080e72000008140004e4090000080fb0078
:10377000800078007c004700010040008200780053
:10378000030178008af50700ce4090001e489000a3
:1037900000c04000404798006e00470031c2b300af
:1037a00053fa07007c004700ce4090004dfb070015
:1037b00078fb07000040eb00aaeeb700620137007b
:1037c0005e4090000080fb002102200080804000cd
:1037d00060e520000080400090407800314f980064
:1037e0005e4090000040e8005047980056cebf0071
:1037f0000040e900104f98003e489000e14f500013
:103800002c003a002ccfbf008080fb000008200075
:1038100001005000e60f500026003400c2f22000e4
:10382000124178008280fb00c0ea200080804000c6
:1038300090c3b300804878000240e8002cefb70046
:103840000040eb00204f980015003700c2f2200026
:10385000124178008281fb005e4090000080fb00f6
:10386000210220008080400060e5200000804000b0
:1038700090407800c0ea20000080410001487800b4
:103880000240e8002cefb7005e4090000040e800e6
:10389000504798002e4890000040e800204f9800c4
:1038a000ae4890001e48900080cf5000e7ff3900de
:1038b000390037003e489000e14f500036003a0092
:1038c0002ccfbf008080fb000008200001005000ca
:1038d000e60f500030003c0010c0b3002fefb700df
:1038e0000040eb002eefb700e2f22000124178001a
:1038f0000280fb008080e800e0f220008080400031
:1039000090c3b300804878000240e8002eefb70073
:103910000040eb00204f980016003700e3f2200033
:10392000934178000382fb005e4090000080fb0022
:10393000210220008080400060e5200000804000df
:10394000104178008480e800e0f220000080400010
:10395000024878000340e8002eefb7005e40900078
:103960000040e800504798002e4890000040e800d2
:10397000204f9800ae4890001e48900080cf500025
:10398000e6ff39008041eb000001eb0011c0b300fd
:10399000c0c0b300440b07000040eb00aaeeb70024
:1039a000e90037000040eb00404798004e4090008f
:1039b0008080fb007c00470080804000b0c1b300e5
:1039c000804878004e4090000040e8004047980052
:1039d00056cebf000040e900104f98001e489000ee
:1039e000e24f500024003a005e4090000080fb004f
:1039f000210220008080400060e52000008040001f
:103a00001040780034eeb7005e4090000040e800bf
:103a1000504798005e4090000080fb00210220008b
:103a20008080400060e52000008040001040780069
:103a300035eeb7005e4090000040e8005047980027
:103a400000c8b30054eeb700e61b0700311c0700a6
:103a50004e4090008080fb007c004700808040004a
:103a600010c0b300804878004e4090000040e8004d
:103a700040479800090037004e4090008080fb00ce
:103a80007c004700808040000040eb0080487800c8
:103a90004e4090000040e800404798004e409000a3
:103aa0008080fb0022e52000124178007c00470066
:103ab00000804000024878004e4090000040e8003e
:103ac000404798004e4090000080fb008000780046
:103ad0007c0047000100400034fb07004e4090008e
:103ae00064404000404798006e00470031c4b30076
:103af0007ff907007c004700ce40900079fa07006c
:103b0000a4fa07000040eb00aaeeb7008e003700d1
:103b1000607280004800de0063406000004f780063
:103b200032c0b3009e4f11000300320023c0b30027
:103b30009ecf110048003a005e4090000080fb00dc
:103b4000210220008080400060e5200000804000cd
:103b500010407800007798005e4090000040e80038
:103b6000504798005e4090000080fb00210220003a
:103b70008080400060e52000008040001040780018
:103b8000107798005e4090000040e8005047980091
:103b90005e4090000080fb002102200080804000f9
:103ba00060e52000008040009040780011479800b8
:103bb0005e4090000040e800504798001e40900092
:103bc0000004e00019003a000e189000e10f4000d8
:103bd00016003200f0728000907188000e1890007c
:103be000a071880001e7200060e3200007000900c1
:103bf000315878008000b1008100b100c51b07007a
:103c000000c8b30054eeb700552ea800751b07007e
:103c1000f91b07008041eb000001eb0011c0b3006d
:103c200000c6b300a00a07000b0037001e4090003a
:103c30000004e00008003a000e189000e10f400078
:103c400005003a00f07280009071880000ccb3004b
:103c500054eeb700552ea8000040eb00aaeeb700c6
:103c6000390037000040eb00404798005e4090006c
:103c70000080fb00210220008080400060e52000e1
:103c800000804000104078000080fb001007980082
:103c90004e4090008080fb007c0047008080400008
:103ca000b0c0b300804878004e4090000040e8006b
:103cb000404798004e4090000081fb001e0090009d
:103cc000804078007c0047000000410001487800f7
:103cd0004e4090000040e8004047980052cebf00a0
:103ce0008080fb001e009000808f500007003a008b
:103cf0006e00470031c0b300fdf807007c004700ac
:103d0000ce409000f7f9070022fa07000040eb00d0
:103d1000aaeeb7000c0037000040eb0088f6b700b1
:103d200024020700552ea90000ccb30054eeb700c2
:103d30000000eb00a07188000000eb00907188008b
:103d40000040eb00aaeeb7000080fa000000060079
:103d50000200fa005acebf00004f78001e407800e3
:103d6000e90007000040eb00aaeeb7000060fe008b
:103d70000080fa00000006000600fa000040eb0098
:103d80003047980080f60700004f780010c0b3005d
:103d90009e4f100048003a00c072800067406000eb
:103da000104798001e4090000080fb0020079800fc
:103db0002e009000e10f50000e0032002e00900007
:103dc000e10f500004003c002e0090000000e000d5
:103dd00030003200350037002e009000e20f500016
:103de0002e0032002e009000e30f50002d00320014
:103df0002e003700607280004800de0063406000e3
:103e0000204798002e409000e14f50000a003a00f1
:103e1000a072800001102000010060000000e0009e
:103e200005003a000040eb00304798000040eb00ee
:103e3000aaeeb700220037002e409000e34f50005a
:103e40000a003a00a07280000120200001006000fa
:103e50000000e00005003a000040eb003047980009
:103e60000040eb00aaeeb700150037002e4090008e
:103e70000004e00005003a000040eb0030479800e5
:103e80000040eb00aaeeb7000d003700100007005d
:103e90000b003700fcf9070009003700acff0700f2
:103ea0000700370059fa0700050037000040eb0013
:103eb000aaeeb7000200370000000000000000007a
:103ec0002c0107000060fe000080fa0000000600e0
:103ed0000400fa000040eb00004f780078cebf00ed
:103ee000004f78001e80fb00100798001e00900015
:103ef000e40f5000140032001e009000e40f500048
:103f000004003c001e009000e20f50000800320048
:103f10001f0037001e009000ea0f5000160032000c
:103f20001e009000ef0f50000d0032001800370007
:103f30008041eb000001eb0011c0b30020c7b300cb
:103f4000d9090700170037008041eb000001eb00a2
:103f500011c0b30010c7b300d30907001100370028
:103f60008041eb000001eb0011c0b30030c7b3008b
:103f7000cd0907000b0037008041eb000001eb008a
:103f800011c0b30040c7b300c709070005003700e0
:103f90008041eb000001eb0011c0b30040c7b3004b
:103fa000c10907000040eb00aaeeb7000080fa004c
:103fb000000006000400fa00881f7800bdd0bf0092
:103fc00001c2b300014f60001e04e00003003a008c
:103fd0000080eb0010079800470037000040eb001e
:103fe000104798003f0037001e4090008080fb0083
:103ff000800420000088b900610420008080400017
:1040000040f5200000804000100078004800de00ed
:10401000614060000004e0002f003a00fdd0bf00c6
:104020000081fb001e4090008080fb008004200087
:104030000088b9008000780040f520000080400032
:10404000c10b21005af307001e4090000084fb00c2
:10405000092307000001be008004200000c0b90051
:10406000210420008080400040f5200000804000b6
:104070000288be001e4090008080fb00800420006b
:104080000088b900610420008080400040f52000d5
:10409000808040000040eb00804878001e40900087
:1040a0008080fb00800420000088b90061042000ab
:1040b0008080400040f520008080400000102000fb
:1040c000910870000060fe001e4090000080fb0020
:1040d00010079800080037001e4090000040e800dc
:1040e000104798001e409000e44f5000beff36007d
:1040f0008080eb00110798001e0090004f047800ac
:104100000080fa00000006000600fa002047980030
:104110000040eb0010479800620037001e409000fe
:104120008080fb00800420000088b900e30040008c
:1041300040f5200000804000104f78002e40900095
:104140009e4f100054003a001e4090008080fb00fb
:10415000800420000088b9006104200080804000b5
:1041600040f5200000804000100078004800de008c
:10417000614060000004e000470032001e409000f3
:104180008080fb00800420000088b90061042000ca
:104190008080400040f5200080804000f0ef2f003c
:1041a000910860001e4090008080fb00d30f21002a
:1041b000934178000381fb00800420000088b9004f
:1041c0008200400040f52000808040000040eb006d
:1041d000804878000340e800fdf0b7001e409000e2
:1041e0008080fb00d30f2100934178000381fb0006
:1041f000800420000088b9008200400040f52000c3
:10420000808040000040eb00804878000340e800d8
:10421000fdf0b7001e4090008080fb00d30f21000e
:10422000934178000381fb00800420000088b900de
:104230008200400040f52000808040000040eb00fc
:10424000804878000340e800fdf0b7001e40900071
:104250008080fb00d30f2100934178000381fb0095
:10426000800420000088b9008200400040f5200052
:10427000808040000040eb00804878000340e80068
:10428000fdf0b7000060fe001e4090000080fb00c3
:1042900020079800080037001e4090000040e8000a
:1042a000104798001e409000e44f50009bff3600de
:1042b0000080eb00200798002e0090000080fa009c
:1042c000000006000600fa00204798000040eb00be
:1042d000104798001f0037001e4090008080fb00b0
:1042e000800420000088b900e300400040f5200071
:1042f00000804000104f78002e4090009e4f10002c
:1043000011003a001e4090008080fb0080042000d5
:104310000088b900610420008080400040f5200042
:1043200000804000100078004800de00614060001e
:104330000004e000040032001e4090000080fb00fa
:1043400020079800080037001e4090000040e80059
:10435000104798001e409000e44f5000deff3600ea
:104360000080eb00200798002e0090000080fa00eb
:10437000000006000200fa00881f78000040eb00f1
:1043800010479800680037001e4090008080fb00b6
:10439000800420000088b900610420008080400073
:1043a00040f5200000804000100078004800de004a
:1043b000614060000004e000580032001e409000a0
:1043c0008080fb00800420000088b9006104200088
:1043d0008080400040f520000080400010407800c0
:1043e000e24f50000b0036001e4090008080fb0022
:1043f000800420000088b900610420008080400013
:1044000040f5200080804000f0ef2f009108600010
:1044100042003700182207000001be001e40900035
:104420008080fb00800420000088b9002104200067
:104430008080400040f52000008040001000be0059
:10444000122207000001be0049cebf000080fb0021
:1044500001002000800f5100818f59002f0036008d
:104460001e4090008080fb00800420000088b9007e
:104470008000780040f5200000804000104f780058
:104480001e4090008080fb00800420000088b9005e
:104490008000780040f52000008040009e407800b9
:1044a000130b0700b90d07001e4090000084fb00ad
:1044b000f12107000001be008004200000c0b90007
:1044c000210420008080400040f520000080400052
:1044d0000288be001e4090000081fb008004200086
:1044e0000090b900610420008080400040f5200069
:1044f00000804000104078008041e80080042000e7
:104500000090b900610420008080400040f5200048
:1045100000804000034878000060fe001e409000cc
:104520000040e800104798001e409000e44f500003
:1045300095ff36004f0478000080fa000000060066
:104540000200fa000040eb00004f78000040eb0052
:1045500010479800110037001e4090008080fb003b
:10456000800420000088b9006104200080804000a1
:1045700040f5200000804000100078004800de0078
:10458000614060000004e000010032001e4fe800be
:104590001e4090000040e800104798001e40900028
:1045a000e44f5000ecff36001e80fb000080fa0054
:1045b000000006000200fa000000eb00000f780087
:1045c000160037001e0078007a00b900f60040009f
:1045d000e00f210080804000f0ff2700910860007c
:1045e0001e0078007a00b900f4004000e00f2100be
:1045f000808040000040eb00804878001e0078007a
:104600007a00b900f6004000e00f210080804000f1
:1046100000002c00910860001e0fe8001000200030
:104620009e0f1000e7ff36000080fa000000060031
:104630000600fa00881f7800100798000000eb00c1
:10464000000f7800920037001e0078007a00b90051
:10465000f6004000e00f21000080400010007800cc
:104660004f00de000004e00088003a001e007800e1
:104670007a00b900f6004000e00f21008080400081
:1046800000002800910870001e0078007a00b90030
:10469000f6004000e00f21000080400001002c00e7
:1046a000108860001000a0001e0078007a00b90099
:1046b000f6004000e00f2100808040000000240050
:1046c000910870009e0078001e0090001000780095
:1046d000614160007a08b90080007800e00f210095
:1046e000008040008280fb0061816000e1ff2f00bc
:1046f00010886000100871001e0078007a00b90070
:1047000080007800e00f210080804000b0ff2f0083
:10471000910860001e0078007a00b90080007800df
:10472000e00f21008080400070ff2f0091086000a2
:104730001e0078007a00b90080007800e00f2100a8
:1047400080804000f0f02f00910860001e0078008b
:10475000823a2100124178007a00b9008000780086
:10476000e00f210000804000124098009e00780079
:104770001e009000100190007a08b9008080e800c7
:10478000e00f210000804000020878009e007800c1
:104790001e009000200190007a08b900e40040005b
:1047a000e00f210000804000020878001e00900009
:1047b00066004000000178001e0078007a00b90011
:1047c000e6004000e00f21000080400007000900e3
:1047d000325878008000b1008200b1009e0078005d
:1047e0001e009000700190007a08b900ee004000b1
:1047f000e00f210000804000020878001e047800cd
:104800001d2107000001be007a40b900f000400001
:10481000e00f2100008040000288be009e0078006a
:104820001e009000405190007a08b900f40040004a
:10483000e00f210000804000024878009e007800d0
:104840001e009000505190007a08b900f40040001a
:10485000e00f210000804000124098009e00780088
:104860001e009000505190007a08b900f8004000f6
:10487000e00f210000804000024878000060fe0048
:104880001e00780020079800060037001e0fe80081
:10489000100020009e0f10006bff36000080eb0020
:1048a000200798002e0090004f0478000080fa0046
:1048b000000006000800fa00200798000000eb0046
:1048c00010079800380037001e0090007a00b900e9
:1048d000f6004000e00f210000804000100078004a
:1048e0004f00de000004e0002c0032001e009000ab
:1048f0007a00b90080007800e00f210000804000bd
:1049000010007800614060000004e00010003a00f0
:10491000ae009000e0ff2f00910860002e00900094
:10492000100190001e0090007a00b9008080e8001d
:10493000e00f21000080400010007800800f51003f
:1049400016003a001e009000300798001b00370048
:104950002e0090001000a0002e0090006600400085
:10496000800178001e0090007a00b900e600400047
:10497000e00f2100008040008200200083007800ca
:10498000f1f00700004f78001e04e00003003a0039
:104990001e00900030079800080037001e009000ad
:1049a0000000e800100798001e009000e10f500082
:1049b000c5ff36000080eb00300798003e009000f5
:1049c0000080fa00000006000600fa0010079800b8
:1049d0000000eb00000f7800160037001e00780082
:1049e0007a00b900f6004000e00f2100008040008e
:1049f000100078004f00de000004e0000c003200e0
:104a00001e0078007a00b9008080e800e00f2100e5
:104a100000804000900078001e009000808f5000c1
:104a200003003a001e0078002007980006003700b7
:104a30001e0fe800100020009e0f1000e7ff360058
:104a40000080eb00200798002e0090000080fa0004
:104a5000000006000400fa00100798001e009000f5
:104a600094ff0700000f78000080eb009e0f1000fd
:104a700009003a001e009000c050900089d6bf0087
:104a800080cf5000040039001e009000e8fe0700af
:104a900010c0b30088f6b7000080fa0000000600de
:104aa0000600fa00100798000000eb00000f7800e5
:104ab000180037001e0078007a00b900f6004000a8
:104ac000e00f210000804000100078004f00de0061
:104ad0000004e0000e0032001e0078007a00b900e9
:104ae00080007800e00f2100008040008000780006
:104af0001e0090001900090031587800a001b10093
:104b0000a101b1001e0078002007980006003700c0
:104b10001e0fe800100020009e0f1000e5ff360079
:104b20000080eb00200798002e0090000080fa0023
:104b3000000006000c00fa00400798000000eb009f
:104b4000200798000080eb00000f78000000eb00c9
:104b500030079800350037003e0090007a00b90019
:104b6000ee004000e00f21000080400010007800bf
:104b70004f00de00004178003e0090007a00b9004e
:104b8000f6004000e00f2100008040001000780097
:104b90004e00de0061406000004061002047980048
:104ba0003e0090007a00b900f6004000e00f2100be
:104bb00000804000100078004f00de000004e0009c
:104bc000170032002e4090000004e0001400320074
:104bd0003e0090007a00b900f4004000e00f210090
:104be00000804000104078008080fb002e00900084
:104bf000808f50000a0036003e0090007a00b90015
:104c0000f4004000e00f21000080400010407800d8
:104c10000080fb00200798003e009000000f780005
:104c20003e0090000000e800300798003e00900031
:104c3000e10f5000c8ff36002e0090000000e00099
:104c4000110032000080eb009e0f10000e003200b9
:104c50001e0078007a00b90080007800e00f210083
:104c600000804000800078004e009000190009008c
:104c700031587800a001b100a101b1001e007800f8
:104c800050079800020037000080eb0050079800a2
:104c90005e0090000080fa00000006000600fa00a6
:104ca0000000eb00100798000000eb0020079800c0
:104cb000220037002e0090007a00b900ee0040007c
:104cc000e00f210000804000100078004f00de005f
:104cd000004178002e0090007a00b900f6004000f4
:104ce000e00f210000804000100078004e00de0040
:104cf00061406000004f61002e0090007a00b90012
:104d0000f6004000e00f2100008040001000780015
:104d10004f00de000004e000050032001e04e00049
:104d2000030032001e0090000000e8001007980009
:104d30002e0090000000e800200798002e00900050
:104d4000e10f5000dbff36001e0090000080fa00eb
:104d5000000006000200fa000000eb00000f7800df
:104d6000200037001e0078007a00b900f6004000ed
:104d7000e00f210000804000100078004f00de00ae
:104d80000004e00016003200bb1f07000001be0057
:104d90001e0078007a00b900f0004000e00f21000a
:104da000008040001000be00b81f07000001be00d8
:104db000803e200001002000800f5100818f5900ab
:104dc000070036001e0078007a00b900f6004000a7
:104dd000e00f210080804000f0ff27009108600074
:104de0001e0fe800100020009e0f1000ddff3600af
:104df0000080fa00000006001200fa0088d6bf000a
:104e0000e14f50004a003a0080e1200049ff0700ce
:104e1000000f78000080eb009e0f10004a00320067
:104e20000040eb00005798000e5090000000a100d9
:104e300000579800607280004800de006340600008
:104e40008e509000634060000041400090cfb3005e
:104e500080c0600082c07000015798000e50900022
:104e60000030a000005798000e5090000040a000b5
:104e7000005798000e5090000060a1000057980065
:104e80000e5090000070a00000579800c070800085
:104e9000610060000000e0000d003a008e80e80034
:104ea00080c0b30080487800d17080000e80e80098
:104eb00011009800e17080000e80e8002100980049
:104ec0000e80e8008e509000470007001e0037005b
:104ed000c0708000610060000000e0001a00320035
:104ee0008e80e800c0c0b30080487800d170800098
:104ef0000e80e80011009800d17080000e80e8005c
:104f000011009800e1e120000e80e80066004000fa
:104f100007000900315878008000b1008100b1001d
:104f20000e80e8008e5090002f000700060037002a
:104f3000a072800001202000010060000000e0005d
:104f400001003a00020007000080fa00000006009d
:104f50001600fa000040eb0010479800e8004700f8
:104f600080c0b30080487800e80047000080eb0074
:104f700090009800e80047000080eb00a000980037
:104f800054cebf00004f78000040eb0054eeb70055
:104f90006800470031c0b30055f407001e40780098
:104fa00054eeb7001e4090008080fb000e80e800a9
:104fb0008080400070c0b300804878001e409000a0
:104fc0000040e800104798000e80e8009e409000e6
:104fd00044f507000060fe006ef507000080fb004e
:104fe0000080fa00000006000c00fa00400798005c
:104ff000214f98000040eb00004f78009071800036
:10500000300798000080eb009071880031c0b30039
:105010004e00900036f407003e009000907188002a
:105020001e81fb008e00e80010c0b30000f1780084
:105030001e4fe8001e81fb00ae4890000e00e80005
:10504000017178001e4fe8001e81fb0021e5200061
:10505000914078000e00e800017178001e4fe800d2
:105060000e00e8009e4078001ef5070049f5070095
:105070000080fb000080fa00000006001a00fa0021
:10508000300f9800410f98000040eb001047980047
:10509000e8004700c0c0b30080487800e80047003f
:1050a0000080eb0090009800be0890006800470068
:1050b0006600400007000900315878008000b10008
:1050c0008100b10054cebf00004f780000ccb30087
:1050d00054eeb7006800470031c2b30004f4070083
:1050e0001e40780054eeb7001e4090008080fb0008
:1050f0000e80e8008080400030c0b3008048780017
:105100001e4090000040e800104798001e409000ac
:105110000081fb004e089000804078000e80e8007f
:1051200000004100014878001e4090000040e80067
:10513000104798000e80e8009e409000e9f40700b8
:105140000060fe0013f507000080fb000080fa00fd
:10515000000006000000fa000040eb00aaeeb700d5
:105160000080fa00000006001c00fa006c004700f6
:10517000300798006a004700200798000040eb00c5
:10518000004f78008001eb000001eb0011c0b3007c
:1051900060c0b30005040700400798004e0090006f
:1051a000e10f500001003a00f3fa0700ae01900051
:1051b0003e01900011c0b30080c0b300fb030700a4
:1051c000400798004e009000e10f50003a003a006e
:1051d0006e019000924078006e0047000148780010
:1051e0000200e800600798006e019000924078008d
:1051f0006e004700214098000200e8006007980018
:105200006e019000924078006e0047003140980097
:105210000200e800600798006e019000924078005c
:105220006e004700414098000200e80060079800c7
:105230006e019000924078006e0047005140980047
:105240000200e80060079800ee0090006e00470042
:105250006600400007000900315878008000b10066
:105260008100b1006e009000680040006007980067
:105270002e4890006d405000204f98006e00900026
:1052800090407800114798000000e80060079800ff
:105290002e4890000040e900204f98006e00470023
:1052a0009e40900092f30700ae4890006e00900080
:1052b0008cf40700b7f407008001eb000001eb005d
:1052c00011c0b30090c0b300b803070040079800b6
:1052d0004e009000e10f50000d003a006072800017
:1052e0004800de0063406000204798002e40900098
:1052f000e34f500006003a00a07280000120200019
:10530000010060000000e00001003a00bafe070062
:105310008001eb000001eb0011c0b300d0c0b3006e
:10532000a2030700400798004e009000e10f5000d4
:1053300024003a000040eb002cefb7000040eb00e7
:10534000004f78002fcfbf00e14f50001d003a0002
:105350000000eb004007980011003700c2f2200067
:10536000124178008281fb001e80fb008080e800f3
:10537000e0f220000080400090407800c0ea200069
:1053800000804100014878000240e8002cefb7009f
:105390001e4fe8004e0090000000e8004007980013
:1053a0002ecfbf008080fb004e009000808f500009
:1053b000eaff3c000040eb002fefb7000040eb009d
:1053c0002eefb700ebfb0700c309070052000700f0
:1053d000be1d07000080fa00000006000200fa006f
:1053e0000000eb00000f78000f0037001e0078006f
:1053f0006a00b9008080e800c0132100808040006e
:10540000f0c0b300904098001e0078006a00b90018
:10541000e4004000c013210080804000f0c0b300d1
:10542000804878001e0fe800f00020009e0f10005a
:10543000eeff34000040eb00fbf1b7000000eb0092
:10544000000f7800240037001e0078006a00b900c1
:1054500080007800c0272100808040000040eb00e1
:10546000804878001e0078006a00b900e40040001f
:10547000c0272100808040000000eb0080087800f9
:105480001e0078006a00b900e6004000c027210035
:10549000808040000040eb00804878001e007800cb
:1054a0006a00b90080007800c02721008080400099
:1054b0000040eb00904098001e0078006a00b900a0
:1054c000e8004000c0272100808040000040eb0041
:1054d000804878001e0fe800d00120009e0f1000c9
:1054e000d9ff34000080fa00000006000200fa0034
:1054f000004f78001e80fb006a00b9008080e80041
:10550000c01321008080400010c0b300904098007c
:105510000080fa00000006000000fa0032d1bf004f
:105520000080fb006a00b9008080e800c013210001
:105530008080400020c0b300904098000080fa00b6
:10554000000006000200fa00000f78000000eb00e7
:10555000200888004110200091407800f0ccb30072
:1055600000c060000044a00004e1b7000000eb00b0
:10557000000888001e00780010088800510a2000ea
:105580009140780000c7b30000c07000a5e0b700ec
:105590008460a9009460a80005e1a8000080fa00da
:1055a000000006000000fa0042c0bf0001ceb300b8
:1055b0000140700042e0b7009560a9009460a90026
:1055c0000080fa00000006000000fa0042c0bf00a0
:1055d0007f40600042e0b7009560a8009460a8009a
:1055e0000080fa00000006000000fa000000000041
:1055f000feff37001400fa0070079800015798006a
:1056000012579800235798000e5090000080fb001e
:10561000500798006000b8003007980041079800d4
:105620000000eb00200798000000eb001007980036
:105630007e009000000f78001e007800010020001e
:1056400030079800410798003e009000200798001e
:105650003e009000ce0090004008de0001002000d7
:1056600010079800a0022000d8ed070060079800fe
:105670006e0090000000e00004003a000e50900020
:105680000080fb00500798006a0037006e00900011
:10569000ae009000010878006e0090009e0090001f
:1056a00011009800ee0090000000eb00a0009800b0
:1056b000ee0090000000eb00b0009800ee009000bb
:1056c0000000eb00c0009800ee0090000000eb002e
:1056d000d0009800ee0090000000eb00e000980081
:1056e000ee0090000000eb00f0009800ee0090004b
:1056f0000000eb0080089800ee0090000000eb0036
:1057000090089800ee0090000000eb00a0089800c0
:10571000ee0090000000eb00b0089800ee00900052
:105720000000eb00c0089800ee0090000000eb00c5
:10573000d0089800ee0090000000eb00e008980010
:10574000ee0090000000eb00f0089800ee009000e2
:105750000000eb0080109800ee0090000000eb00cd
:1057600090109800ee0090000000eb00a010980050
:10577000ee0090000000eb00b0109800ee009000ea
:105780000000eb00c0109800de0090006e0090005a
:10579000000178006a08b90080007800c013210079
:1057a00000804000020878005e0090006a00b900a6
:1057b0008080e800c0132100008040008e509000df
:1057c000014878005e0090006a00b9008080e8001f
:1057d000c013210000804000ae509000114098009e
:1057e0005e0090006a00b900e4004000c013210090
:1057f000008040009e509000014878005e009000bc
:105800006a00b900e6004000c0132100008040009b
:10581000ae009000010878005e0090006a00b900b8
:10582000e8004000c0132100008040009e0090006e
:10583000010878000080fa00000006000400fa0069
:105840000040eb00204798000040eb001047980014
:1058500000c1b300004f780052ff07000040eb008a
:10586000204798001e0037002e4090000080fb006b
:105870006a00b9008080e800c01321000080400069
:1058800010409000e14f500012003a002e4090006e
:105890000080fb006a00b900e4004000c013210052
:1058a00000804000104078009e4f500009003100f9
:1058b0002e4090000080fb006a00b900e400400028
:1058c000c013210000804000104f78002e4090004f
:1058d000104798002e4090000040e80020479800b4
:1058e0002e409000ef4f5000dfff36001e4090002a
:1058f00032f1b7001e40780033f1b70032d1bf005b
:105900000080fb006a00b90080007800c01321000d
:105910000080400010007800d089880032d1bf009c
:105920000080fb006a00b90080007800c0132100ed
:105930000080400010007800a002b000c0898800fc
:1059400032d1bf000080fb006a00b900e6004000d1
:10595000c01321000080400010007800a08988005a
:1059600032d1bf000080fb006a00b900e8004000af
:10597000c01321000080400010007800b08988002a
:1059800011ff07003411f8003611f800000006007e
:105990000080fa00000006000600fa000040eb005c
:1059a000204798000040eb001047980000c1b3006a
:1059b000004f78000040eb00204798001e003700a1
:1059c0002e4090000080fb006a00b9008080e80053
:1059d000c01321000080400010409000e14f5000b3
:1059e00012003a002e4090000080fb006a00b900cf
:1059f000e4004000c0132100008040001040780007
:105a00009e4f5000090031002e4090000080fb00a6
:105a10006a00b900e4004000c0132100008040008b
:105a2000104f78002e409000104798002e409000b4
:105a30000040e800204798002e409000ef4f5000b3
:105a4000dfff360021132100914078001e409000b6
:105a500080cf500003003a000000eb0020079800c0
:105a6000270037001e40900032f1b7001e4078003a
:105a700033f1b70032d1bf000080fb006a00b900eb
:105a800080007800c01321000080400010007800e2
:105a9000d089880032d1bf000080fb006a00b900c5
